{
  "_format": "hh-sol-artifact-1",
  "contractName": "ETHTrackerNFT",
  "sourceName": "contracts/ETHTrackerNFT.sol",
  "abi": [
    {
      "anonymous": false,
      "inputs": [
        {
          "indexed": false,
          "internalType": "address",
          "name": "previousAdmin",
          "type": "address"
        },
        {
          "indexed": false,
          "internalType": "address",
          "name": "newAdmin",
          "type": "address"
        }
      ],
      "name": "AdminChanged",
      "type": "event"
    },
    {
      "anonymous": false,
      "inputs": [
        {
          "indexed": true,
          "internalType": "address",
          "name": "owner",
          "type": "address"
        },
        {
          "indexed": true,
          "internalType": "address",
          "name": "approved",
          "type": "address"
        },
        {
          "indexed": true,
          "internalType": "uint256",
          "name": "tokenId",
          "type": "uint256"
        }
      ],
      "name": "Approval",
      "type": "event"
    },
    {
      "anonymous": false,
      "inputs": [
        {
          "indexed": true,
          "internalType": "address",
          "name": "owner",
          "type": "address"
        },
        {
          "indexed": true,
          "internalType": "address",
          "name": "operator",
          "type": "address"
        },
        {
          "indexed": false,
          "internalType": "bool",
          "name": "approved",
          "type": "bool"
        }
      ],
      "name": "ApprovalForAll",
      "type": "event"
    },
    {
      "anonymous": false,
      "inputs": [
        {
          "indexed": true,
          "internalType": "address",
          "name": "beacon",
          "type": "address"
        }
      ],
      "name": "BeaconUpgraded",
      "type": "event"
    },
    {
      "anonymous": false,
      "inputs": [
        {
          "indexed": true,
          "internalType": "address",
          "name": "previousOwner",
          "type": "address"
        },
        {
          "indexed": true,
          "internalType": "address",
          "name": "newOwner",
          "type": "address"
        }
      ],
      "name": "OwnershipTransferred",
      "type": "event"
    },
    {
      "anonymous": false,
      "inputs": [
        {
          "indexed": true,
          "internalType": "address",
          "name": "from",
          "type": "address"
        },
        {
          "indexed": true,
          "internalType": "address",
          "name": "to",
          "type": "address"
        },
        {
          "indexed": true,
          "internalType": "uint256",
          "name": "tokenId",
          "type": "uint256"
        }
      ],
      "name": "Transfer",
      "type": "event"
    },
    {
      "anonymous": false,
      "inputs": [
        {
          "indexed": true,
          "internalType": "address",
          "name": "implementation",
          "type": "address"
        }
      ],
      "name": "Upgraded",
      "type": "event"
    },
    {
      "inputs": [
        {
          "internalType": "address",
          "name": "to",
          "type": "address"
        },
        {
          "internalType": "uint256",
          "name": "tokenId",
          "type": "uint256"
        }
      ],
      "name": "approve",
      "outputs": [],
      "stateMutability": "nonpayable",
      "type": "function"
    },
    {
      "inputs": [
        {
          "internalType": "address",
          "name": "owner",
          "type": "address"
        }
      ],
      "name": "balanceOf",
      "outputs": [
        {
          "internalType": "uint256",
          "name": "",
          "type": "uint256"
        }
      ],
      "stateMutability": "view",
      "type": "function"
    },
    {
      "inputs": [
        {
          "internalType": "bytes",
          "name": "checkData",
          "type": "bytes"
        }
      ],
      "name": "checkUpkeep",
      "outputs": [
        {
          "internalType": "bool",
          "name": "upkeepNeeded",
          "type": "bool"
        },
        {
          "internalType": "bytes",
          "name": "performData",
          "type": "bytes"
        }
      ],
      "stateMutability": "view",
      "type": "function"
    },
    {
      "inputs": [
        {
          "internalType": "uint256",
          "name": "tokenId",
          "type": "uint256"
        }
      ],
      "name": "getApproved",
      "outputs": [
        {
          "internalType": "address",
          "name": "",
          "type": "address"
        }
      ],
      "stateMutability": "view",
      "type": "function"
    },
    {
      "inputs": [
        {
          "internalType": "string",
          "name": "baseURI",
          "type": "string"
        },
        {
          "internalType": "address",
          "name": "priceFeedOracle",
          "type": "address"
        }
      ],
      "name": "initialize",
      "outputs": [],
      "stateMutability": "nonpayable",
      "type": "function"
    },
    {
      "inputs": [
        {
          "internalType": "address",
          "name": "owner",
          "type": "address"
        },
        {
          "internalType": "address",
          "name": "operator",
          "type": "address"
        }
      ],
      "name": "isApprovedForAll",
      "outputs": [
        {
          "internalType": "bool",
          "name": "",
          "type": "bool"
        }
      ],
      "stateMutability": "view",
      "type": "function"
    },
    {
      "inputs": [],
      "name": "latestDateChecked",
      "outputs": [
        {
          "internalType": "uint256",
          "name": "",
          "type": "uint256"
        }
      ],
      "stateMutability": "view",
      "type": "function"
    },
    {
      "inputs": [],
      "name": "latestPrice",
      "outputs": [
        {
          "internalType": "int256",
          "name": "",
          "type": "int256"
        }
      ],
      "stateMutability": "view",
      "type": "function"
    },
    {
      "inputs": [],
      "name": "name",
      "outputs": [
        {
          "internalType": "string",
          "name": "",
          "type": "string"
        }
      ],
      "stateMutability": "view",
      "type": "function"
    },
    {
      "inputs": [],
      "name": "owner",
      "outputs": [
        {
          "internalType": "address",
          "name": "",
          "type": "address"
        }
      ],
      "stateMutability": "view",
      "type": "function"
    },
    {
      "inputs": [
        {
          "internalType": "uint256",
          "name": "tokenId",
          "type": "uint256"
        }
      ],
      "name": "ownerOf",
      "outputs": [
        {
          "internalType": "address",
          "name": "",
          "type": "address"
        }
      ],
      "stateMutability": "view",
      "type": "function"
    },
    {
      "inputs": [
        {
          "internalType": "bytes",
          "name": "performData",
          "type": "bytes"
        }
      ],
      "name": "performUpkeep",
      "outputs": [],
      "stateMutability": "nonpayable",
      "type": "function"
    },
    {
      "inputs": [],
      "name": "renounceOwnership",
      "outputs": [],
      "stateMutability": "nonpayable",
      "type": "function"
    },
    {
      "inputs": [
        {
          "internalType": "address",
          "name": "from",
          "type": "address"
        },
        {
          "internalType": "address",
          "name": "to",
          "type": "address"
        },
        {
          "internalType": "uint256",
          "name": "tokenId",
          "type": "uint256"
        }
      ],
      "name": "safeTransferFrom",
      "outputs": [],
      "stateMutability": "nonpayable",
      "type": "function"
    },
    {
      "inputs": [
        {
          "internalType": "address",
          "name": "from",
          "type": "address"
        },
        {
          "internalType": "address",
          "name": "to",
          "type": "address"
        },
        {
          "internalType": "uint256",
          "name": "tokenId",
          "type": "uint256"
        },
        {
          "internalType": "bytes",
          "name": "_data",
          "type": "bytes"
        }
      ],
      "name": "safeTransferFrom",
      "outputs": [],
      "stateMutability": "nonpayable",
      "type": "function"
    },
    {
      "inputs": [
        {
          "internalType": "address",
          "name": "operator",
          "type": "address"
        },
        {
          "internalType": "bool",
          "name": "approved",
          "type": "bool"
        }
      ],
      "name": "setApprovalForAll",
      "outputs": [],
      "stateMutability": "nonpayable",
      "type": "function"
    },
    {
      "inputs": [
        {
          "internalType": "bytes4",
          "name": "interfaceId",
          "type": "bytes4"
        }
      ],
      "name": "supportsInterface",
      "outputs": [
        {
          "internalType": "bool",
          "name": "",
          "type": "bool"
        }
      ],
      "stateMutability": "view",
      "type": "function"
    },
    {
      "inputs": [],
      "name": "symbol",
      "outputs": [
        {
          "internalType": "string",
          "name": "",
          "type": "string"
        }
      ],
      "stateMutability": "view",
      "type": "function"
    },
    {
      "inputs": [
        {
          "internalType": "uint256",
          "name": "tokenId",
          "type": "uint256"
        }
      ],
      "name": "tokenURI",
      "outputs": [
        {
          "internalType": "string",
          "name": "",
          "type": "string"
        }
      ],
      "stateMutability": "view",
      "type": "function"
    },
    {
      "inputs": [
        {
          "internalType": "address",
          "name": "from",
          "type": "address"
        },
        {
          "internalType": "address",
          "name": "to",
          "type": "address"
        },
        {
          "internalType": "uint256",
          "name": "tokenId",
          "type": "uint256"
        }
      ],
      "name": "transferFrom",
      "outputs": [],
      "stateMutability": "nonpayable",
      "type": "function"
    },
    {
      "inputs": [
        {
          "internalType": "address",
          "name": "newOwner",
          "type": "address"
        }
      ],
      "name": "transferOwnership",
      "outputs": [],
      "stateMutability": "nonpayable",
      "type": "function"
    },
    {
      "inputs": [],
      "name": "trend",
      "outputs": [
        {
          "internalType": "int16",
          "name": "",
          "type": "int16"
        }
      ],
      "stateMutability": "view",
      "type": "function"
    },
    {
      "inputs": [],
      "name": "updatePrice",
      "outputs": [],
      "stateMutability": "nonpayable",
      "type": "function"
    },
    {
      "inputs": [
        {
          "internalType": "address",
          "name": "newImplementation",
          "type": "address"
        }
      ],
      "name": "upgradeTo",
      "outputs": [],
      "stateMutability": "nonpayable",
      "type": "function"
    },
    {
      "inputs": [
        {
          "internalType": "address",
          "name": "newImplementation",
          "type": "address"
        },
        {
          "internalType": "bytes",
          "name": "data",
          "type": "bytes"
        }
      ],
      "name": "upgradeToAndCall",
      "outputs": [],
      "stateMutability": "payable",
      "type": "function"
    }
  ],
  "bytecode": "0x608060405234801561001057600080fd5b506138aa806100206000396000f3fe6080604052600436106101965760003560e01c80636e04ff0d116100e1578063a22cb4651161008a578063b88d4fde11610064578063b88d4fde1461046e578063c87b56dd1461048e578063e985e9c5146104ae578063f2fde38b1461050457600080fd5b8063a22cb46514610409578063a3e6ba9414610429578063b85fcc351461044057600080fd5b80637ab4339d116100bb5780637ab4339d146103a95780638da5cb5b146103c957806395d89b41146103f457600080fd5b80636e04ff0d1461034657806370a0823114610374578063715018a61461039457600080fd5b80633659cfe6116101435780634f1ef2861161011d5780634f1ef286146102fe5780636352211e14610311578063673a7e281461033157600080fd5b80633659cfe61461029e57806342842e0e146102be5780634585e33b146102de57600080fd5b8063095ea7b311610174578063095ea7b31461023757806323b872dd146102595780633325c0251461027957600080fd5b806301ffc9a71461019b57806306fdde03146101d0578063081812fc146101f2575b600080fd5b3480156101a757600080fd5b506101bb6101b6366004613260565b610524565b60405190151581526020015b60405180910390f35b3480156101dc57600080fd5b506101e5610609565b6040516101c7919061357c565b3480156101fe57600080fd5b5061021261020d36600461335b565b61069b565b60405173ffffffffffffffffffffffffffffffffffffffff90911681526020016101c7565b34801561024357600080fd5b50610257610252366004613237565b610760565b005b34801561026557600080fd5b50610257610274366004613110565b6108b9565b34801561028557600080fd5b506102906101305481565b6040519081526020016101c7565b3480156102aa57600080fd5b506102576102b93660046130c4565b610940565b3480156102ca57600080fd5b506102576102d9366004613110565b610967565b3480156102ea57600080fd5b506102576102f9366004613298565b610982565b61025761030c3660046131eb565b61098e565b34801561031d57600080fd5b5061021261032c36600461335b565b6109a3565b34801561033d57600080fd5b50610257610a3b565b34801561035257600080fd5b50610366610361366004613298565b6112d7565b6040516101c7929190613561565b34801561038057600080fd5b5061029061038f3660046130c4565b61135b565b3480156103a057600080fd5b5061025761140f565b3480156103b557600080fd5b506102576103c4366004613305565b611482565b3480156103d557600080fd5b5060975473ffffffffffffffffffffffffffffffffffffffff16610212565b34801561040057600080fd5b506101e561166c565b34801561041557600080fd5b506102576104243660046131b1565b61167b565b34801561043557600080fd5b5061029061012f5481565b34801561044c57600080fd5b506101315461045b9060010b81565b60405160019190910b81526020016101c7565b34801561047a57600080fd5b5061025761048936600461314b565b611778565b34801561049a57600080fd5b506101e56104a936600461335b565b611806565b3480156104ba57600080fd5b506101bb6104c93660046130de565b73ffffffffffffffffffffffffffffffffffffffff9182166000908152606a6020908152604080832093909416825291909152205460ff1690565b34801561051057600080fd5b5061025761051f3660046130c4565b6118e1565b60007fffffffff0000000000000000000000000000000000000000000000000000000082167f80ac58cd0000000000000000000000000000000000000000000000000000000014806105b757507fffffffff0000000000000000000000000000000000000000000000000000000082167f5b5e139f00000000000000000000000000000000000000000000000000000000145b8061060357507f01ffc9a7000000000000000000000000000000000000000000000000000000007fffffffff000000000000000000000000000000000000000000000000000000008316145b92915050565b606060658054610618906136d0565b80601f0160208091040260200160405190810160405280929190818152602001828054610644906136d0565b80156106915780601f1061066657610100808354040283529160200191610691565b820191906000526020600020905b81548152906001019060200180831161067457829003601f168201915b5050505050905090565b60008181526067602052604081205473ffffffffffffffffffffffffffffffffffffffff166107375760405162461bcd60e51b815260206004820152602c60248201527f4552433732313a20617070726f76656420717565727920666f72206e6f6e657860448201527f697374656e7420746f6b656e000000000000000000000000000000000000000060648201526084015b60405180910390fd5b5060009081526069602052604090205473ffffffffffffffffffffffffffffffffffffffff1690565b600061076b826109a3565b90508073ffffffffffffffffffffffffffffffffffffffff168373ffffffffffffffffffffffffffffffffffffffff16141561080f5760405162461bcd60e51b815260206004820152602160248201527f4552433732313a20617070726f76616c20746f2063757272656e74206f776e6560448201527f7200000000000000000000000000000000000000000000000000000000000000606482015260840161072e565b3373ffffffffffffffffffffffffffffffffffffffff82161480610838575061083881336104c9565b6108aa5760405162461bcd60e51b815260206004820152603860248201527f4552433732313a20617070726f76652063616c6c6572206973206e6f74206f7760448201527f6e6572206e6f7220617070726f76656420666f7220616c6c0000000000000000606482015260840161072e565b6108b483836119da565b505050565b6108c33382611a7a565b6109355760405162461bcd60e51b815260206004820152603160248201527f4552433732313a207472616e736665722063616c6c6572206973206e6f74206f60448201527f776e6572206e6f7220617070726f766564000000000000000000000000000000606482015260840161072e565b6108b4838383611bd0565b61094981611e03565b61096481604051806020016040528060008152506000611e6a565b50565b6108b483838360405180602001604052806000815250611778565b61098a610a3b565b5050565b61099782611e03565b61098a82826001611e6a565b60008181526067602052604081205473ffffffffffffffffffffffffffffffffffffffff16806106035760405162461bcd60e51b815260206004820152602960248201527f4552433732313a206f776e657220717565727920666f72206e6f6e657869737460448201527f656e7420746f6b656e0000000000000000000000000000000000000000000000606482015260840161072e565b600080610a466120af565b915091506000610a558261216d565b905061013054811415610af65760405162461bcd60e51b815260206004820152604760248201527f4c617465737420617661696c61626c652070726963652066726f6d207072696360448201527f6520666565642068617320616c7265616479206265656e2073657420666f722060648201527f7468652064617900000000000000000000000000000000000000000000000000608482015260a40161072e565b61012f5461013054620151806000610b0e84886135bb565b1315610d0657610b2463ffffffff82168561362f565b821415610b8d57610131546000600191820b90910b13610b5557610131805461ffff19166001908117909155610b87565b610131805460010b906000610b6983613724565b91906101000a81548161ffff021916908360010b61ffff1602179055505b50610b9d565b610131805461ffff191660011790555b6501d1a94a20008612610bf75761012d8054600691907fffffffffffffffffffffff00ffffffffffffffffffffffffffffffffffffffff1674010000000000000000000000000000000000000000835b02179055506112c6565b610131546005600191820b90910b12610c4f5761012d80547fffffffffffffffffffffff00ffffffffffffffffffffffffffffffffffffffff16740200000000000000000000000000000000000000001790556112c6565b610131546002600191820b90910b12610ca95761012d8054600191907fffffffffffffffffffffff00ffffffffffffffffffffffffffffffffffffffff167401000000000000000000000000000000000000000083610bed565b61013154600190810b810b1415610d015761012d8054600091907fffffffffffffffffffffff00ffffffffffffffffffffffffffffffffffffffff167401000000000000000000000000000000000000000083610bed565b6112c6565b6000610d1284886135bb565b1215610f8057610d2863ffffffff82168561362f565b821415610db057610131546000600191820b90910b12610d7857610131805461ffff191661ffff1790557fffffffffffffffffffffffffffffffffffffffffffffffffffffffffffffffff610daa565b610131805460010b906000610d8c83613672565b91906101000a81548161ffff021916908360010b61ffff1602179055505b50610dc1565b610131805461ffff191661ffff1790555b6501d1a94a20008612610e155761012d8054600691907fffffffffffffffffffffff00ffffffffffffffffffffffffffffffffffffffff167401000000000000000000000000000000000000000083610bed565b610131547ffffffffffffffffffffffffffffffffffffffffffffffffffffffffffffffffb600191820b90910b13610e8e5761012d8054600591907fffffffffffffffffffffff00ffffffffffffffffffffffffffffffffffffffff167401000000000000000000000000000000000000000083610bed565b610131547ffffffffffffffffffffffffffffffffffffffffffffffffffffffffffffffffe600191820b90910b13610f075761012d8054600491907fffffffffffffffffffffff00ffffffffffffffffffffffffffffffffffffffff167401000000000000000000000000000000000000000083610bed565b61013154600190810b900b7fffffffffffffffffffffffffffffffffffffffffffffffffffffffffffffffff1415610d015761012d8054600391907fffffffffffffffffffffff00ffffffffffffffffffffffffffffffffffffffff167401000000000000000000000000000000000000000083610bed565b610f8a83876135bb565b6112c657610f9e63ffffffff82168561362f565b82146112c657610131546000600191820b90910b13610fed57610131805461ffff191661ffff1790557fffffffffffffffffffffffffffffffffffffffffffffffffffffffffffffffff611000565b610131805461ffff191660019081179091555b506501d1a94a200086126110555761012d8054600691907fffffffffffffffffffffff00ffffffffffffffffffffffffffffffffffffffff167401000000000000000000000000000000000000000083610bed565b610131546005600191820b90910b126110af5761012d8054600291907fffffffffffffffffffffff00ffffffffffffffffffffffffffffffffffffffff167401000000000000000000000000000000000000000083610bed565b610131546002600191820b90910b126111095761012d8054600191907fffffffffffffffffffffff00ffffffffffffffffffffffffffffffffffffffff167401000000000000000000000000000000000000000083610bed565b61013154600190810b810b14156111615761012d8054600091907fffffffffffffffffffffff00ffffffffffffffffffffffffffffffffffffffff167401000000000000000000000000000000000000000083610bed565b610131547ffffffffffffffffffffffffffffffffffffffffffffffffffffffffffffffffb600191820b90910b136111da5761012d8054600591907fffffffffffffffffffffff00ffffffffffffffffffffffffffffffffffffffff167401000000000000000000000000000000000000000083610bed565b610131547ffffffffffffffffffffffffffffffffffffffffffffffffffffffffffffffffe600191820b90910b136112535761012d8054600491907fffffffffffffffffffffff00ffffffffffffffffffffffffffffffffffffffff167401000000000000000000000000000000000000000083610bed565b61013154600190810b900b7fffffffffffffffffffffffffffffffffffffffffffffffffffffffffffffffff14156112c65761012d80547fffffffffffffffffffffff00ffffffffffffffffffffffffffffffffffffffff16740300000000000000000000000000000000000000001790555b50505061012f929092555061013055565b6000606062015180826112e86120af565b9150508163ffffffff1661013054611300919061358f565b811015611311576000935083611317565b60019350835b5085858080601f0160208091040260200160405190810160405280939291908181526020018383808284376000920191909152509699929850919650505050505050565b600073ffffffffffffffffffffffffffffffffffffffff82166113e65760405162461bcd60e51b815260206004820152602a60248201527f4552433732313a2062616c616e636520717565727920666f7220746865207a6560448201527f726f206164647265737300000000000000000000000000000000000000000000606482015260840161072e565b5073ffffffffffffffffffffffffffffffffffffffff1660009081526068602052604090205490565b60975473ffffffffffffffffffffffffffffffffffffffff1633146114765760405162461bcd60e51b815260206004820181905260248201527f4f776e61626c653a2063616c6c6572206973206e6f7420746865206f776e6572604482015260640161072e565b6114806000612195565b565b600054610100900460ff168061149b575060005460ff16155b61150d5760405162461bcd60e51b815260206004820152602e60248201527f496e697469616c697a61626c653a20636f6e747261637420697320616c72656160448201527f647920696e697469616c697a6564000000000000000000000000000000000000606482015260840161072e565b600054610100900460ff1615801561152f576000805461ffff19166101011790555b6115a36040518060400160405280600d81526020017f455448547261636b65724e4654000000000000000000000000000000000000008152506040518060400160405280600381526020017f45544e000000000000000000000000000000000000000000000000000000000081525061220c565b6115ab612306565b6115b36123f4565b82516115c79061012e906020860190612f35565b5061012d80547fffffffffffffffffffffffff00000000000000000000000000000000000000001673ffffffffffffffffffffffffffffffffffffffff84161790556116143360006124b1565b60008061161f6120af565b61012f82905590925090506116338161216d565b61013055505080156108b457600080547fffffffffffffffffffffffffffffffffffffffffffffffffffffffffffff00ff169055505050565b606060668054610618906136d0565b73ffffffffffffffffffffffffffffffffffffffff82163314156116e15760405162461bcd60e51b815260206004820152601960248201527f4552433732313a20617070726f766520746f2063616c6c657200000000000000604482015260640161072e565b336000818152606a6020908152604080832073ffffffffffffffffffffffffffffffffffffffff87168085529083529281902080547fffffffffffffffffffffffffffffffffffffffffffffffffffffffffffffff001686151590811790915590519081529192917f17307eab39ab6107e8899845ad3d59bd9653f200f220920489ca2b5937696c31910160405180910390a35050565b6117823383611a7a565b6117f45760405162461bcd60e51b815260206004820152603160248201527f4552433732313a207472616e736665722063616c6c6572206973206e6f74206f60448201527f776e6572206e6f7220617070726f766564000000000000000000000000000000606482015260840161072e565b6118008484848461263f565b50505050565b606081156118565760405162461bcd60e51b815260206004820152601560248201527f4f6e6c7920746f6b656e49642030206578697374730000000000000000000000604482015260640161072e565b61012d5461012e906118ba9074010000000000000000000000000000000000000000900460ff1660068111156118b5577f4e487b7100000000000000000000000000000000000000000000000000000000600052602160045260246000fd5b6126c8565b6040516020016118cb929190613444565b6040516020818303038152906040529050919050565b60975473ffffffffffffffffffffffffffffffffffffffff1633146119485760405162461bcd60e51b815260206004820181905260248201527f4f776e61626c653a2063616c6c6572206973206e6f7420746865206f776e6572604482015260640161072e565b73ffffffffffffffffffffffffffffffffffffffff81166119d15760405162461bcd60e51b815260206004820152602660248201527f4f776e61626c653a206e6577206f776e657220697320746865207a65726f206160448201527f6464726573730000000000000000000000000000000000000000000000000000606482015260840161072e565b61096481612195565b600081815260696020526040902080547fffffffffffffffffffffffff00000000000000000000000000000000000000001673ffffffffffffffffffffffffffffffffffffffff84169081179091558190611a34826109a3565b73ffffffffffffffffffffffffffffffffffffffff167f8c5be1e5ebec7d5bd14f71427d1e84f3dd0314c0f7b2291e5b200ac8c7c3b92560405160405180910390a45050565b60008181526067602052604081205473ffffffffffffffffffffffffffffffffffffffff16611b115760405162461bcd60e51b815260206004820152602c60248201527f4552433732313a206f70657261746f7220717565727920666f72206e6f6e657860448201527f697374656e7420746f6b656e0000000000000000000000000000000000000000606482015260840161072e565b6000611b1c836109a3565b90508073ffffffffffffffffffffffffffffffffffffffff168473ffffffffffffffffffffffffffffffffffffffff161480611b8b57508373ffffffffffffffffffffffffffffffffffffffff16611b738461069b565b73ffffffffffffffffffffffffffffffffffffffff16145b80611bc8575073ffffffffffffffffffffffffffffffffffffffff8082166000908152606a602090815260408083209388168352929052205460ff165b949350505050565b8273ffffffffffffffffffffffffffffffffffffffff16611bf0826109a3565b73ffffffffffffffffffffffffffffffffffffffff1614611c795760405162461bcd60e51b815260206004820152602960248201527f4552433732313a207472616e73666572206f6620746f6b656e2074686174206960448201527f73206e6f74206f776e0000000000000000000000000000000000000000000000606482015260840161072e565b73ffffffffffffffffffffffffffffffffffffffff8216611d015760405162461bcd60e51b8152602060048201526024808201527f4552433732313a207472616e7366657220746f20746865207a65726f2061646460448201527f7265737300000000000000000000000000000000000000000000000000000000606482015260840161072e565b611d0c6000826119da565b73ffffffffffffffffffffffffffffffffffffffff83166000908152606860205260408120805460019290611d4290849061362f565b909155505073ffffffffffffffffffffffffffffffffffffffff82166000908152606860205260408120805460019290611d7d90849061358f565b909155505060008181526067602052604080822080547fffffffffffffffffffffffff00000000000000000000000000000000000000001673ffffffffffffffffffffffffffffffffffffffff86811691821790925591518493918716917fddf252ad1be2c89b69c2b068fc378daa952ba7f163c4a11628f55a4df523b3ef91a4505050565b60975473ffffffffffffffffffffffffffffffffffffffff1633146109645760405162461bcd60e51b815260206004820181905260248201527f4f776e61626c653a2063616c6c6572206973206e6f7420746865206f776e6572604482015260640161072e565b6000611eaa7f360894a13ba1a3210667c828492db98dca3e2076cc3735a920a3ca505d382bbc5473ffffffffffffffffffffffffffffffffffffffff1690565b9050611eb584612848565b600083511180611ec25750815b15611ed357611ed18484612922565b505b7f4910fdfa16fed3260ed0e7147f7cc6da11a60208b5b9406d12a635614ffd9143805460ff166120a85780547fffffffffffffffffffffffffffffffffffffffffffffffffffffffffffffff0016600117815560405173ffffffffffffffffffffffffffffffffffffffff83166024820152611fc9908690604401604080517fffffffffffffffffffffffffffffffffffffffffffffffffffffffffffffffe08184030181529190526020810180517bffffffffffffffffffffffffffffffffffffffffffffffffffffffff167f3659cfe600000000000000000000000000000000000000000000000000000000179052612922565b5080547fffffffffffffffffffffffffffffffffffffffffffffffffffffffffffffff001681557f360894a13ba1a3210667c828492db98dca3e2076cc3735a920a3ca505d382bbc5473ffffffffffffffffffffffffffffffffffffffff83811691161461209f5760405162461bcd60e51b815260206004820152602f60248201527f45524331393637557067726164653a207570677261646520627265616b73206660448201527f7572746865722075706772616465730000000000000000000000000000000000606482015260840161072e565b6120a885612a28565b5050505050565b600080600080600080600061012d60009054906101000a900473ffffffffffffffffffffffffffffffffffffffff1673ffffffffffffffffffffffffffffffffffffffff1663feaf968c6040518163ffffffff1660e01b815260040160a06040518083038186803b15801561212357600080fd5b505afa158015612137573d6000803e3d6000fd5b505050506040513d601f19601f8201168201806040525081019061215b9190613373565b50919a91995090975050505050505050565b6000620151808161217e828561377e565b9050600061218c828661362f565b95945050505050565b6097805473ffffffffffffffffffffffffffffffffffffffff8381167fffffffffffffffffffffffff0000000000000000000000000000000000000000831681179093556040519116919082907f8be0079c531659141344cd1fd0a4f28419497f9722a3daafe3b4186f6b6457e090600090a35050565b600054610100900460ff1680612225575060005460ff16155b6122975760405162461bcd60e51b815260206004820152602e60248201527f496e697469616c697a61626c653a20636f6e747261637420697320616c72656160448201527f647920696e697469616c697a6564000000000000000000000000000000000000606482015260840161072e565b600054610100900460ff161580156122b9576000805461ffff19166101011790555b6122c1612a75565b6122c9612a75565b6122d38383612b52565b80156108b457600080547fffffffffffffffffffffffffffffffffffffffffffffffffffffffffffff00ff169055505050565b600054610100900460ff168061231f575060005460ff16155b6123915760405162461bcd60e51b815260206004820152602e60248201527f496e697469616c697a61626c653a20636f6e747261637420697320616c72656160448201527f647920696e697469616c697a6564000000000000000000000000000000000000606482015260840161072e565b600054610100900460ff161580156123b3576000805461ffff19166101011790555b6123bb612a75565b6123c3612c5a565b801561096457600080547fffffffffffffffffffffffffffffffffffffffffffffffffffffffffffff00ff16905550565b600054610100900460ff168061240d575060005460ff16155b61247f5760405162461bcd60e51b815260206004820152602e60248201527f496e697469616c697a61626c653a20636f6e747261637420697320616c72656160448201527f647920696e697469616c697a6564000000000000000000000000000000000000606482015260840161072e565b600054610100900460ff161580156124a1576000805461ffff19166101011790555b6124a9612a75565b6123c3612a75565b73ffffffffffffffffffffffffffffffffffffffff82166125145760405162461bcd60e51b815260206004820181905260248201527f4552433732313a206d696e7420746f20746865207a65726f2061646472657373604482015260640161072e565b60008181526067602052604090205473ffffffffffffffffffffffffffffffffffffffff16156125865760405162461bcd60e51b815260206004820152601c60248201527f4552433732313a20746f6b656e20616c7265616479206d696e74656400000000604482015260640161072e565b73ffffffffffffffffffffffffffffffffffffffff821660009081526068602052604081208054600192906125bc90849061358f565b909155505060008181526067602052604080822080547fffffffffffffffffffffffff00000000000000000000000000000000000000001673ffffffffffffffffffffffffffffffffffffffff861690811790915590518392907fddf252ad1be2c89b69c2b068fc378daa952ba7f163c4a11628f55a4df523b3ef908290a45050565b61264a848484611bd0565b61265684848484612d10565b6118005760405162461bcd60e51b815260206004820152603260248201527f4552433732313a207472616e7366657220746f206e6f6e20455243373231526560448201527f63656976657220696d706c656d656e7465720000000000000000000000000000606482015260840161072e565b60608161270857505060408051808201909152600181527f3000000000000000000000000000000000000000000000000000000000000000602082015290565b8160005b8115612732578061271c81613745565b915061272b9050600a836135a7565b915061270c565b60008167ffffffffffffffff811115612774577f4e487b7100000000000000000000000000000000000000000000000000000000600052604160045260246000fd5b6040519080825280601f01601f19166020018201604052801561279e576020820181803683370190505b5090505b8415611bc8576127b360018361362f565b91506127c0600a8661377e565b6127cb90603061358f565b60f81b818381518110612807577f4e487b7100000000000000000000000000000000000000000000000000000000600052603260045260246000fd5b60200101907effffffffffffffffffffffffffffffffffffffffffffffffffffffffffffff1916908160001a905350612841600a866135a7565b94506127a2565b803b6128bc5760405162461bcd60e51b815260206004820152602d60248201527f455243313936373a206e657720696d706c656d656e746174696f6e206973206e60448201527f6f74206120636f6e747261637400000000000000000000000000000000000000606482015260840161072e565b7f360894a13ba1a3210667c828492db98dca3e2076cc3735a920a3ca505d382bbc80547fffffffffffffffffffffffff00000000000000000000000000000000000000001673ffffffffffffffffffffffffffffffffffffffff92909216919091179055565b6060823b6129985760405162461bcd60e51b815260206004820152602660248201527f416464726573733a2064656c65676174652063616c6c20746f206e6f6e2d636f60448201527f6e74726163740000000000000000000000000000000000000000000000000000606482015260840161072e565b6000808473ffffffffffffffffffffffffffffffffffffffff16846040516129c09190613428565b600060405180830381855af49150503d80600081146129fb576040519150601f19603f3d011682016040523d82523d6000602084013e612a00565b606091505b509150915061218c828260405180606001604052806027815260200161384e60279139612ef5565b612a3181612848565b60405173ffffffffffffffffffffffffffffffffffffffff8216907fbc7cd75a20ee27fd9adebab32041f755214dbc6bffa90cc0225b39da2e5c2d3b90600090a250565b600054610100900460ff1680612a8e575060005460ff16155b612b005760405162461bcd60e51b815260206004820152602e60248201527f496e697469616c697a61626c653a20636f6e747261637420697320616c72656160448201527f647920696e697469616c697a6564000000000000000000000000000000000000606482015260840161072e565b600054610100900460ff161580156123c3576000805461ffff1916610101179055801561096457600080547fffffffffffffffffffffffffffffffffffffffffffffffffffffffffffff00ff16905550565b600054610100900460ff1680612b6b575060005460ff16155b612bdd5760405162461bcd60e51b815260206004820152602e60248201527f496e697469616c697a61626c653a20636f6e747261637420697320616c72656160448201527f647920696e697469616c697a6564000000000000000000000000000000000000606482015260840161072e565b600054610100900460ff16158015612bff576000805461ffff19166101011790555b8251612c12906065906020860190612f35565b508151612c26906066906020850190612f35565b5080156108b457600080547fffffffffffffffffffffffffffffffffffffffffffffffffffffffffffff00ff169055505050565b600054610100900460ff1680612c73575060005460ff16155b612ce55760405162461bcd60e51b815260206004820152602e60248201527f496e697469616c697a61626c653a20636f6e747261637420697320616c72656160448201527f647920696e697469616c697a6564000000000000000000000000000000000000606482015260840161072e565b600054610100900460ff16158015612d07576000805461ffff19166101011790555b6123c333612195565b600073ffffffffffffffffffffffffffffffffffffffff84163b15612eea576040517f150b7a0200000000000000000000000000000000000000000000000000000000815273ffffffffffffffffffffffffffffffffffffffff85169063150b7a0290612d87903390899088908890600401613518565b602060405180830381600087803b158015612da157600080fd5b505af1925050508015612def575060408051601f3d9081017fffffffffffffffffffffffffffffffffffffffffffffffffffffffffffffffe0168201909252612dec9181019061327c565b60015b612e9f573d808015612e1d576040519150601f19603f3d011682016040523d82523d6000602084013e612e22565b606091505b508051612e975760405162461bcd60e51b815260206004820152603260248201527f4552433732313a207472616e7366657220746f206e6f6e20455243373231526560448201527f63656976657220696d706c656d656e7465720000000000000000000000000000606482015260840161072e565b805181602001fd5b7fffffffff00000000000000000000000000000000000000000000000000000000167f150b7a0200000000000000000000000000000000000000000000000000000000149050611bc8565b506001949350505050565b60608315612f04575081612f2e565b825115612f145782518084602001fd5b8160405162461bcd60e51b815260040161072e919061357c565b9392505050565b828054612f41906136d0565b90600052602060002090601f016020900481019282612f635760008555612fa9565b82601f10612f7c57805160ff1916838001178555612fa9565b82800160010185558215612fa9579182015b82811115612fa9578251825591602001919060010190612f8e565b50612fb5929150612fb9565b5090565b5b80821115612fb55760008155600101612fba565b600067ffffffffffffffff80841115612fe957612fe96137f0565b604051601f85017fffffffffffffffffffffffffffffffffffffffffffffffffffffffffffffffe0908116603f0116810190828211818310171561302f5761302f6137f0565b8160405280935085815286868601111561304857600080fd5b858560208301376000602087830101525050509392505050565b803573ffffffffffffffffffffffffffffffffffffffff8116811461308657600080fd5b919050565b600082601f83011261309b578081fd5b612f2e83833560208501612fce565b805169ffffffffffffffffffff8116811461308657600080fd5b6000602082840312156130d5578081fd5b612f2e82613062565b600080604083850312156130f0578081fd5b6130f983613062565b915061310760208401613062565b90509250929050565b600080600060608486031215613124578081fd5b61312d84613062565b925061313b60208501613062565b9150604084013590509250925092565b60008060008060808587031215613160578081fd5b61316985613062565b935061317760208601613062565b925060408501359150606085013567ffffffffffffffff811115613199578182fd5b6131a58782880161308b565b91505092959194509250565b600080604083850312156131c3578182fd5b6131cc83613062565b9150602083013580151581146131e0578182fd5b809150509250929050565b600080604083850312156131fd578182fd5b61320683613062565b9150602083013567ffffffffffffffff811115613221578182fd5b61322d8582860161308b565b9150509250929050565b60008060408385031215613249578182fd5b61325283613062565b946020939093013593505050565b600060208284031215613271578081fd5b8135612f2e8161381f565b60006020828403121561328d578081fd5b8151612f2e8161381f565b600080602083850312156132aa578182fd5b823567ffffffffffffffff808211156132c1578384fd5b818501915085601f8301126132d4578384fd5b8135818111156132e2578485fd5b8660208285010111156132f3578485fd5b60209290920196919550909350505050565b60008060408385031215613317578182fd5b823567ffffffffffffffff81111561332d578283fd5b8301601f8101851361333d578283fd5b61334c85823560208401612fce565b92505061310760208401613062565b60006020828403121561336c578081fd5b5035919050565b600080600080600060a0868803121561338a578283fd5b613393866130aa565b94506020860151935060408601519250606086015191506133b6608087016130aa565b90509295509295909350565b600081518084526133da816020860160208601613646565b601f017fffffffffffffffffffffffffffffffffffffffffffffffffffffffffffffffe0169290920160200192915050565b6000815161341e818560208601613646565b9290920192915050565b6000825161343a818460208701613646565b9190910192915050565b600080845482600182811c91508083168061346057607f831692505b6020808410821415613499577f4e487b710000000000000000000000000000000000000000000000000000000087526022600452602487fd5b8180156134ad57600181146134dc57613508565b7fffffffffffffffffffffffffffffffffffffffffffffffffffffffffffffff00861689528489019650613508565b60008b815260209020885b868110156135005781548b8201529085019083016134e7565b505084890196505b50505050505061218c818561340c565b600073ffffffffffffffffffffffffffffffffffffffff80871683528086166020840152508360408301526080606083015261355760808301846133c2565b9695505050505050565b8215158152604060208201526000611bc860408301846133c2565b602081526000612f2e60208301846133c2565b600082198211156135a2576135a2613792565b500190565b6000826135b6576135b66137c1565b500490565b6000808312837f8000000000000000000000000000000000000000000000000000000000000000018312811516156135f5576135f5613792565b837f7fffffffffffffffffffffffffffffffffffffffffffffffffffffffffffffff01831381161561362957613629613792565b50500390565b60008282101561364157613641613792565b500390565b60005b83811015613661578181015183820152602001613649565b838111156118005750506000910152565b60008160010b7fffffffffffffffffffffffffffffffffffffffffffffffffffffffffffff80008114156136a8576136a8613792565b7fffffffffffffffffffffffffffffffffffffffffffffffffffffffffffffffff0192915050565b600181811c908216806136e457607f821691505b6020821081141561371e577f4e487b7100000000000000000000000000000000000000000000000000000000600052602260045260246000fd5b50919050565b60008160010b617fff81141561373c5761373c613792565b60010192915050565b60007fffffffffffffffffffffffffffffffffffffffffffffffffffffffffffffffff82141561377757613777613792565b5060010190565b60008261378d5761378d6137c1565b500690565b7f4e487b7100000000000000000000000000000000000000000000000000000000600052601160045260246000fd5b7f4e487b7100000000000000000000000000000000000000000000000000000000600052601260045260246000fd5b7f4e487b7100000000000000000000000000000000000000000000000000000000600052604160045260246000fd5b7fffffffff000000000000000000000000000000000000000000000000000000008116811461096457600080fdfe416464726573733a206c6f772d6c6576656c2064656c65676174652063616c6c206661696c6564a26469706673582212201a5b46f3c00c4db44343b5551c7e546595f381eb249a153ac1b94c0d4509e4bb64736f6c63430008040033",
  "linkReferences": {},
  "deployedLinkReferences": {}
}