{
  "_format": "hh-sol-artifact-1",
  "contractName": "ETHTrackerNFT_TEST",
  "sourceName": "contracts/ETHTrackerNFT_TEST.sol",
  "abi": [
    {
      "anonymous": false,
      "inputs": [
        {
          "indexed": false,
          "internalType": "address",
          "name": "previousAdmin",
          "type": "address"
        },
        {
          "indexed": false,
          "internalType": "address",
          "name": "newAdmin",
          "type": "address"
        }
      ],
      "name": "AdminChanged",
      "type": "event"
    },
    {
      "anonymous": false,
      "inputs": [
        {
          "indexed": true,
          "internalType": "address",
          "name": "owner",
          "type": "address"
        },
        {
          "indexed": true,
          "internalType": "address",
          "name": "approved",
          "type": "address"
        },
        {
          "indexed": true,
          "internalType": "uint256",
          "name": "tokenId",
          "type": "uint256"
        }
      ],
      "name": "Approval",
      "type": "event"
    },
    {
      "anonymous": false,
      "inputs": [
        {
          "indexed": true,
          "internalType": "address",
          "name": "owner",
          "type": "address"
        },
        {
          "indexed": true,
          "internalType": "address",
          "name": "operator",
          "type": "address"
        },
        {
          "indexed": false,
          "internalType": "bool",
          "name": "approved",
          "type": "bool"
        }
      ],
      "name": "ApprovalForAll",
      "type": "event"
    },
    {
      "anonymous": false,
      "inputs": [
        {
          "indexed": true,
          "internalType": "address",
          "name": "beacon",
          "type": "address"
        }
      ],
      "name": "BeaconUpgraded",
      "type": "event"
    },
    {
      "anonymous": false,
      "inputs": [
        {
          "indexed": true,
          "internalType": "address",
          "name": "previousOwner",
          "type": "address"
        },
        {
          "indexed": true,
          "internalType": "address",
          "name": "newOwner",
          "type": "address"
        }
      ],
      "name": "OwnershipTransferred",
      "type": "event"
    },
    {
      "anonymous": false,
      "inputs": [
        {
          "indexed": true,
          "internalType": "address",
          "name": "from",
          "type": "address"
        },
        {
          "indexed": true,
          "internalType": "address",
          "name": "to",
          "type": "address"
        },
        {
          "indexed": true,
          "internalType": "uint256",
          "name": "tokenId",
          "type": "uint256"
        }
      ],
      "name": "Transfer",
      "type": "event"
    },
    {
      "anonymous": false,
      "inputs": [
        {
          "indexed": true,
          "internalType": "address",
          "name": "implementation",
          "type": "address"
        }
      ],
      "name": "Upgraded",
      "type": "event"
    },
    {
      "inputs": [
        {
          "internalType": "int256",
          "name": "price",
          "type": "int256"
        },
        {
          "internalType": "uint256",
          "name": "timestamp",
          "type": "uint256"
        }
      ],
      "name": "TEST_UpdatePrice",
      "outputs": [],
      "stateMutability": "nonpayable",
      "type": "function"
    },
    {
      "inputs": [
        {
          "internalType": "address",
          "name": "to",
          "type": "address"
        },
        {
          "internalType": "uint256",
          "name": "tokenId",
          "type": "uint256"
        }
      ],
      "name": "approve",
      "outputs": [],
      "stateMutability": "nonpayable",
      "type": "function"
    },
    {
      "inputs": [
        {
          "internalType": "address",
          "name": "owner",
          "type": "address"
        }
      ],
      "name": "balanceOf",
      "outputs": [
        {
          "internalType": "uint256",
          "name": "",
          "type": "uint256"
        }
      ],
      "stateMutability": "view",
      "type": "function"
    },
    {
      "inputs": [
        {
          "internalType": "bytes",
          "name": "checkData",
          "type": "bytes"
        },
        {
          "internalType": "int256",
          "name": "price",
          "type": "int256"
        },
        {
          "internalType": "uint256",
          "name": "_timestamp",
          "type": "uint256"
        }
      ],
      "name": "checkUpkeep",
      "outputs": [
        {
          "internalType": "bool",
          "name": "upkeepNeeded",
          "type": "bool"
        },
        {
          "internalType": "bytes",
          "name": "performData",
          "type": "bytes"
        }
      ],
      "stateMutability": "view",
      "type": "function"
    },
    {
      "inputs": [
        {
          "internalType": "uint256",
          "name": "tokenId",
          "type": "uint256"
        }
      ],
      "name": "getApproved",
      "outputs": [
        {
          "internalType": "address",
          "name": "",
          "type": "address"
        }
      ],
      "stateMutability": "view",
      "type": "function"
    },
    {
      "inputs": [
        {
          "internalType": "string",
          "name": "baseURI",
          "type": "string"
        },
        {
          "internalType": "address",
          "name": "priceFeedOracle",
          "type": "address"
        }
      ],
      "name": "initialize",
      "outputs": [],
      "stateMutability": "nonpayable",
      "type": "function"
    },
    {
      "inputs": [
        {
          "internalType": "address",
          "name": "owner",
          "type": "address"
        },
        {
          "internalType": "address",
          "name": "operator",
          "type": "address"
        }
      ],
      "name": "isApprovedForAll",
      "outputs": [
        {
          "internalType": "bool",
          "name": "",
          "type": "bool"
        }
      ],
      "stateMutability": "view",
      "type": "function"
    },
    {
      "inputs": [],
      "name": "latestDateChecked",
      "outputs": [
        {
          "internalType": "uint256",
          "name": "",
          "type": "uint256"
        }
      ],
      "stateMutability": "view",
      "type": "function"
    },
    {
      "inputs": [],
      "name": "latestPrice",
      "outputs": [
        {
          "internalType": "int256",
          "name": "",
          "type": "int256"
        }
      ],
      "stateMutability": "view",
      "type": "function"
    },
    {
      "inputs": [],
      "name": "name",
      "outputs": [
        {
          "internalType": "string",
          "name": "",
          "type": "string"
        }
      ],
      "stateMutability": "view",
      "type": "function"
    },
    {
      "inputs": [],
      "name": "owner",
      "outputs": [
        {
          "internalType": "address",
          "name": "",
          "type": "address"
        }
      ],
      "stateMutability": "view",
      "type": "function"
    },
    {
      "inputs": [
        {
          "internalType": "uint256",
          "name": "tokenId",
          "type": "uint256"
        }
      ],
      "name": "ownerOf",
      "outputs": [
        {
          "internalType": "address",
          "name": "",
          "type": "address"
        }
      ],
      "stateMutability": "view",
      "type": "function"
    },
    {
      "inputs": [
        {
          "internalType": "bytes",
          "name": "performData",
          "type": "bytes"
        },
        {
          "internalType": "int256",
          "name": "price",
          "type": "int256"
        },
        {
          "internalType": "uint256",
          "name": "timestamp",
          "type": "uint256"
        }
      ],
      "name": "performUpkeep",
      "outputs": [],
      "stateMutability": "nonpayable",
      "type": "function"
    },
    {
      "inputs": [],
      "name": "renounceOwnership",
      "outputs": [],
      "stateMutability": "nonpayable",
      "type": "function"
    },
    {
      "inputs": [
        {
          "internalType": "address",
          "name": "from",
          "type": "address"
        },
        {
          "internalType": "address",
          "name": "to",
          "type": "address"
        },
        {
          "internalType": "uint256",
          "name": "tokenId",
          "type": "uint256"
        }
      ],
      "name": "safeTransferFrom",
      "outputs": [],
      "stateMutability": "nonpayable",
      "type": "function"
    },
    {
      "inputs": [
        {
          "internalType": "address",
          "name": "from",
          "type": "address"
        },
        {
          "internalType": "address",
          "name": "to",
          "type": "address"
        },
        {
          "internalType": "uint256",
          "name": "tokenId",
          "type": "uint256"
        },
        {
          "internalType": "bytes",
          "name": "_data",
          "type": "bytes"
        }
      ],
      "name": "safeTransferFrom",
      "outputs": [],
      "stateMutability": "nonpayable",
      "type": "function"
    },
    {
      "inputs": [
        {
          "internalType": "address",
          "name": "operator",
          "type": "address"
        },
        {
          "internalType": "bool",
          "name": "approved",
          "type": "bool"
        }
      ],
      "name": "setApprovalForAll",
      "outputs": [],
      "stateMutability": "nonpayable",
      "type": "function"
    },
    {
      "inputs": [
        {
          "internalType": "bytes4",
          "name": "interfaceId",
          "type": "bytes4"
        }
      ],
      "name": "supportsInterface",
      "outputs": [
        {
          "internalType": "bool",
          "name": "",
          "type": "bool"
        }
      ],
      "stateMutability": "view",
      "type": "function"
    },
    {
      "inputs": [],
      "name": "symbol",
      "outputs": [
        {
          "internalType": "string",
          "name": "",
          "type": "string"
        }
      ],
      "stateMutability": "view",
      "type": "function"
    },
    {
      "inputs": [
        {
          "internalType": "uint256",
          "name": "tokenId",
          "type": "uint256"
        }
      ],
      "name": "tokenURI",
      "outputs": [
        {
          "internalType": "string",
          "name": "",
          "type": "string"
        }
      ],
      "stateMutability": "view",
      "type": "function"
    },
    {
      "inputs": [
        {
          "internalType": "address",
          "name": "from",
          "type": "address"
        },
        {
          "internalType": "address",
          "name": "to",
          "type": "address"
        },
        {
          "internalType": "uint256",
          "name": "tokenId",
          "type": "uint256"
        }
      ],
      "name": "transferFrom",
      "outputs": [],
      "stateMutability": "nonpayable",
      "type": "function"
    },
    {
      "inputs": [
        {
          "internalType": "address",
          "name": "newOwner",
          "type": "address"
        }
      ],
      "name": "transferOwnership",
      "outputs": [],
      "stateMutability": "nonpayable",
      "type": "function"
    },
    {
      "inputs": [],
      "name": "trend",
      "outputs": [
        {
          "internalType": "int16",
          "name": "",
          "type": "int16"
        }
      ],
      "stateMutability": "view",
      "type": "function"
    },
    {
      "inputs": [
        {
          "internalType": "address",
          "name": "newImplementation",
          "type": "address"
        }
      ],
      "name": "upgradeTo",
      "outputs": [],
      "stateMutability": "nonpayable",
      "type": "function"
    },
    {
      "inputs": [
        {
          "internalType": "address",
          "name": "newImplementation",
          "type": "address"
        },
        {
          "internalType": "bytes",
          "name": "data",
          "type": "bytes"
        }
      ],
      "name": "upgradeToAndCall",
      "outputs": [],
      "stateMutability": "payable",
      "type": "function"
    }
  ],
  "bytecode": "0x608060405234801561001057600080fd5b5061379f806100206000396000f3fe6080604052600436106101965760003560e01c8063715018a6116100e1578063a3e6ba941161008a578063c87b56dd11610064578063c87b56dd1461046b578063e7012cae1461048b578063e985e9c5146104b9578063f2fde38b1461050f57600080fd5b8063a3e6ba9414610406578063b85fcc351461041d578063b88d4fde1461044b57600080fd5b806395d89b41116100bb57806395d89b41146103b1578063a0fe0517146103c6578063a22cb465146103e657600080fd5b8063715018a6146103515780637ab4339d146103665780638da5cb5b1461038657600080fd5b80633325c025116101435780634f1ef2861161011d5780634f1ef286146102fe5780636352211e1461031157806370a082311461033157600080fd5b80633325c025146102995780633659cfe6146102be57806342842e0e146102de57600080fd5b8063095ea7b311610174578063095ea7b3146102375780631064b46c1461025957806323b872dd1461027957600080fd5b806301ffc9a71461019b57806306fdde03146101d0578063081812fc146101f2575b600080fd5b3480156101a757600080fd5b506101bb6101b6366004613176565b61052f565b60405190151581526020015b60405180910390f35b3480156101dc57600080fd5b506101e5610614565b6040516101c79190613471565b3480156101fe57600080fd5b5061021261020d36600461329f565b6106a6565b60405173ffffffffffffffffffffffffffffffffffffffff90911681526020016101c7565b34801561024357600080fd5b5061025761025236600461314d565b61076b565b005b34801561026557600080fd5b50610257610274366004613228565b6108c4565b34801561028557600080fd5b50610257610294366004613026565b611151565b3480156102a557600080fd5b506102b06101305481565b6040519081526020016101c7565b3480156102ca57600080fd5b506102576102d9366004612fda565b6111d8565b3480156102ea57600080fd5b506102576102f9366004613026565b6111ff565b61025761030c366004613101565b61121a565b34801561031d57600080fd5b5061021261032c36600461329f565b611233565b34801561033d57600080fd5b506102b061034c366004612fda565b6112cb565b34801561035d57600080fd5b5061025761137f565b34801561037257600080fd5b50610257610381366004613249565b6113f2565b34801561039257600080fd5b5060975473ffffffffffffffffffffffffffffffffffffffff16610212565b3480156103bd57600080fd5b506101e56115d7565b3480156103d257600080fd5b506102576103e13660046131ae565b6115e6565b3480156103f257600080fd5b506102576104013660046130c7565b6115f6565b34801561041257600080fd5b506102b061012f5481565b34801561042957600080fd5b50610131546104389060010b81565b60405160019190910b81526020016101c7565b34801561045757600080fd5b50610257610466366004613061565b6116f3565b34801561047757600080fd5b506101e561048636600461329f565b61177b565b34801561049757600080fd5b506104ab6104a63660046131ae565b611856565b6040516101c7929190613456565b3480156104c557600080fd5b506101bb6104d4366004612ff4565b73ffffffffffffffffffffffffffffffffffffffff9182166000908152606a6020908152604080832093909416825291909152205460ff1690565b34801561051b57600080fd5b5061025761052a366004612fda565b6118cf565b60007fffffffff0000000000000000000000000000000000000000000000000000000082167f80ac58cd0000000000000000000000000000000000000000000000000000000014806105c257507fffffffff0000000000000000000000000000000000000000000000000000000082167f5b5e139f00000000000000000000000000000000000000000000000000000000145b8061060e57507f01ffc9a7000000000000000000000000000000000000000000000000000000007fffffffff000000000000000000000000000000000000000000000000000000008316145b92915050565b606060658054610623906135c5565b80601f016020809104026020016040519081016040528092919081815260200182805461064f906135c5565b801561069c5780601f106106715761010080835404028352916020019161069c565b820191906000526020600020905b81548152906001019060200180831161067f57829003601f168201915b5050505050905090565b60008181526067602052604081205473ffffffffffffffffffffffffffffffffffffffff166107425760405162461bcd60e51b815260206004820152602c60248201527f4552433732313a20617070726f76656420717565727920666f72206e6f6e657860448201527f697374656e7420746f6b656e000000000000000000000000000000000000000060648201526084015b60405180910390fd5b5060009081526069602052604090205473ffffffffffffffffffffffffffffffffffffffff1690565b600061077682611233565b90508073ffffffffffffffffffffffffffffffffffffffff168373ffffffffffffffffffffffffffffffffffffffff16141561081a5760405162461bcd60e51b815260206004820152602160248201527f4552433732313a20617070726f76616c20746f2063757272656e74206f776e6560448201527f72000000000000000000000000000000000000000000000000000000000000006064820152608401610739565b3373ffffffffffffffffffffffffffffffffffffffff82161480610843575061084381336104d4565b6108b55760405162461bcd60e51b815260206004820152603860248201527f4552433732313a20617070726f76652063616c6c6572206973206e6f74206f7760448201527f6e6572206e6f7220617070726f76656420666f7220616c6c00000000000000006064820152608401610739565b6108bf83836119c8565b505050565b60006108cf82611a68565b9050610130548114156109705760405162461bcd60e51b815260206004820152604760248201527f4c617465737420617661696c61626c652070726963652066726f6d207072696360448201527f6520666565642068617320616c7265616479206265656e2073657420666f722060648201527f7468652064617900000000000000000000000000000000000000000000000000608482015260a401610739565b61012f546101305462015180600061098884886134b0565b1315610b805761099e63ffffffff821685613524565b821415610a0757610131546000600191820b90910b136109cf57610131805461ffff19166001908117909155610a01565b610131805460010b9060006109e383613619565b91906101000a81548161ffff021916908360010b61ffff1602179055505b50610a17565b610131805461ffff191660011790555b6501d1a94a20008612610a715761012d8054600691907fffffffffffffffffffffff00ffffffffffffffffffffffffffffffffffffffff1674010000000000000000000000000000000000000000835b0217905550611140565b610131546005600191820b90910b12610ac95761012d80547fffffffffffffffffffffff00ffffffffffffffffffffffffffffffffffffffff1674020000000000000000000000000000000000000000179055611140565b610131546002600191820b90910b12610b235761012d8054600191907fffffffffffffffffffffff00ffffffffffffffffffffffffffffffffffffffff167401000000000000000000000000000000000000000083610a67565b61013154600190810b810b1415610b7b5761012d8054600091907fffffffffffffffffffffff00ffffffffffffffffffffffffffffffffffffffff167401000000000000000000000000000000000000000083610a67565b611140565b6000610b8c84886134b0565b1215610dfa57610ba263ffffffff821685613524565b821415610c2a57610131546000600191820b90910b12610bf257610131805461ffff191661ffff1790557fffffffffffffffffffffffffffffffffffffffffffffffffffffffffffffffff610c24565b610131805460010b906000610c0683613567565b91906101000a81548161ffff021916908360010b61ffff1602179055505b50610c3b565b610131805461ffff191661ffff1790555b6501d1a94a20008612610c8f5761012d8054600691907fffffffffffffffffffffff00ffffffffffffffffffffffffffffffffffffffff167401000000000000000000000000000000000000000083610a67565b610131547ffffffffffffffffffffffffffffffffffffffffffffffffffffffffffffffffb600191820b90910b13610d085761012d8054600591907fffffffffffffffffffffff00ffffffffffffffffffffffffffffffffffffffff167401000000000000000000000000000000000000000083610a67565b610131547ffffffffffffffffffffffffffffffffffffffffffffffffffffffffffffffffe600191820b90910b13610d815761012d8054600491907fffffffffffffffffffffff00ffffffffffffffffffffffffffffffffffffffff167401000000000000000000000000000000000000000083610a67565b61013154600190810b900b7fffffffffffffffffffffffffffffffffffffffffffffffffffffffffffffffff1415610b7b5761012d8054600391907fffffffffffffffffffffff00ffffffffffffffffffffffffffffffffffffffff167401000000000000000000000000000000000000000083610a67565b610e0483876134b0565b61114057610e1863ffffffff821685613524565b821461114057610131546000600191820b90910b13610e6757610131805461ffff191661ffff1790557fffffffffffffffffffffffffffffffffffffffffffffffffffffffffffffffff610e7a565b610131805461ffff191660019081179091555b506501d1a94a20008612610ecf5761012d8054600691907fffffffffffffffffffffff00ffffffffffffffffffffffffffffffffffffffff167401000000000000000000000000000000000000000083610a67565b610131546005600191820b90910b12610f295761012d8054600291907fffffffffffffffffffffff00ffffffffffffffffffffffffffffffffffffffff167401000000000000000000000000000000000000000083610a67565b610131546002600191820b90910b12610f835761012d8054600191907fffffffffffffffffffffff00ffffffffffffffffffffffffffffffffffffffff167401000000000000000000000000000000000000000083610a67565b61013154600190810b810b1415610fdb5761012d8054600091907fffffffffffffffffffffff00ffffffffffffffffffffffffffffffffffffffff167401000000000000000000000000000000000000000083610a67565b610131547ffffffffffffffffffffffffffffffffffffffffffffffffffffffffffffffffb600191820b90910b136110545761012d8054600591907fffffffffffffffffffffff00ffffffffffffffffffffffffffffffffffffffff167401000000000000000000000000000000000000000083610a67565b610131547ffffffffffffffffffffffffffffffffffffffffffffffffffffffffffffffffe600191820b90910b136110cd5761012d8054600491907fffffffffffffffffffffff00ffffffffffffffffffffffffffffffffffffffff167401000000000000000000000000000000000000000083610a67565b61013154600190810b900b7fffffffffffffffffffffffffffffffffffffffffffffffffffffffffffffffff14156111405761012d80547fffffffffffffffffffffff00ffffffffffffffffffffffffffffffffffffffff16740300000000000000000000000000000000000000001790555b50505061012f929092555061013055565b61115b3382611a90565b6111cd5760405162461bcd60e51b815260206004820152603160248201527f4552433732313a207472616e736665722063616c6c6572206973206e6f74206f60448201527f776e6572206e6f7220617070726f7665640000000000000000000000000000006064820152608401610739565b6108bf838383611be6565b6111e181611e19565b6111fc81604051806020016040528060008152506000611e80565b50565b6108bf838383604051806020016040528060008152506116f3565b61122382611e19565b61122f82826001611e80565b5050565b60008181526067602052604081205473ffffffffffffffffffffffffffffffffffffffff168061060e5760405162461bcd60e51b815260206004820152602960248201527f4552433732313a206f776e657220717565727920666f72206e6f6e657869737460448201527f656e7420746f6b656e00000000000000000000000000000000000000000000006064820152608401610739565b600073ffffffffffffffffffffffffffffffffffffffff82166113565760405162461bcd60e51b815260206004820152602a60248201527f4552433732313a2062616c616e636520717565727920666f7220746865207a6560448201527f726f2061646472657373000000000000000000000000000000000000000000006064820152608401610739565b5073ffffffffffffffffffffffffffffffffffffffff1660009081526068602052604090205490565b60975473ffffffffffffffffffffffffffffffffffffffff1633146113e65760405162461bcd60e51b815260206004820181905260248201527f4f776e61626c653a2063616c6c6572206973206e6f7420746865206f776e65726044820152606401610739565b6113f060006120c5565b565b600054610100900460ff168061140b575060005460ff16155b61147d5760405162461bcd60e51b815260206004820152602e60248201527f496e697469616c697a61626c653a20636f6e747261637420697320616c72656160448201527f647920696e697469616c697a65640000000000000000000000000000000000006064820152608401610739565b600054610100900460ff1615801561149f576000805461ffff19166101011790555b6115136040518060400160405280601281526020017f455448547261636b65724e46545f5445535400000000000000000000000000008152506040518060400160405280600381526020017f45544e000000000000000000000000000000000000000000000000000000000081525061213c565b61151b612236565b611523612324565b82516115379061012e906020860190612e65565b5061012d80547fffffffffffffffffffffffff00000000000000000000000000000000000000001673ffffffffffffffffffffffffffffffffffffffff84161790556115843360006123e1565b642e90edd00061012f819055635fee660061159e81611a68565b61013055505080156108bf57600080547fffffffffffffffffffffffffffffffffffffffffffffffffffffffffffff00ff169055505050565b606060668054610623906135c5565b6115f082826108c4565b50505050565b73ffffffffffffffffffffffffffffffffffffffff821633141561165c5760405162461bcd60e51b815260206004820152601960248201527f4552433732313a20617070726f766520746f2063616c6c6572000000000000006044820152606401610739565b336000818152606a6020908152604080832073ffffffffffffffffffffffffffffffffffffffff87168085529083529281902080547fffffffffffffffffffffffffffffffffffffffffffffffffffffffffffffff001686151590811790915590519081529192917f17307eab39ab6107e8899845ad3d59bd9653f200f220920489ca2b5937696c31910160405180910390a35050565b6116fd3383611a90565b61176f5760405162461bcd60e51b815260206004820152603160248201527f4552433732313a207472616e736665722063616c6c6572206973206e6f74206f60448201527f776e6572206e6f7220617070726f7665640000000000000000000000000000006064820152608401610739565b6115f08484848461256f565b606081156117cb5760405162461bcd60e51b815260206004820152601560248201527f4f6e6c7920746f6b656e496420302065786973747300000000000000000000006044820152606401610739565b61012d5461012e9061182f9074010000000000000000000000000000000000000000900460ff16600681111561182a577f4e487b7100000000000000000000000000000000000000000000000000000000600052602160045260246000fd5b6125f8565b604051602001611840929190613339565b6040516020818303038152906040529050919050565b6101305460009060609062015180908490611872908390613484565b811015611883576000935083611889565b60019350835b5087878080601f016020809104026020016040519081016040528093929190818152602001838380828437600092019190915250969b929a509198505050505050505050565b60975473ffffffffffffffffffffffffffffffffffffffff1633146119365760405162461bcd60e51b815260206004820181905260248201527f4f776e61626c653a2063616c6c6572206973206e6f7420746865206f776e65726044820152606401610739565b73ffffffffffffffffffffffffffffffffffffffff81166119bf5760405162461bcd60e51b815260206004820152602660248201527f4f776e61626c653a206e6577206f776e657220697320746865207a65726f206160448201527f64647265737300000000000000000000000000000000000000000000000000006064820152608401610739565b6111fc816120c5565b600081815260696020526040902080547fffffffffffffffffffffffff00000000000000000000000000000000000000001673ffffffffffffffffffffffffffffffffffffffff84169081179091558190611a2282611233565b73ffffffffffffffffffffffffffffffffffffffff167f8c5be1e5ebec7d5bd14f71427d1e84f3dd0314c0f7b2291e5b200ac8c7c3b92560405160405180910390a45050565b60006201518081611a798285613673565b90506000611a878286613524565b95945050505050565b60008181526067602052604081205473ffffffffffffffffffffffffffffffffffffffff16611b275760405162461bcd60e51b815260206004820152602c60248201527f4552433732313a206f70657261746f7220717565727920666f72206e6f6e657860448201527f697374656e7420746f6b656e00000000000000000000000000000000000000006064820152608401610739565b6000611b3283611233565b90508073ffffffffffffffffffffffffffffffffffffffff168473ffffffffffffffffffffffffffffffffffffffff161480611ba157508373ffffffffffffffffffffffffffffffffffffffff16611b89846106a6565b73ffffffffffffffffffffffffffffffffffffffff16145b80611bde575073ffffffffffffffffffffffffffffffffffffffff8082166000908152606a602090815260408083209388168352929052205460ff165b949350505050565b8273ffffffffffffffffffffffffffffffffffffffff16611c0682611233565b73ffffffffffffffffffffffffffffffffffffffff1614611c8f5760405162461bcd60e51b815260206004820152602960248201527f4552433732313a207472616e73666572206f6620746f6b656e2074686174206960448201527f73206e6f74206f776e00000000000000000000000000000000000000000000006064820152608401610739565b73ffffffffffffffffffffffffffffffffffffffff8216611d175760405162461bcd60e51b8152602060048201526024808201527f4552433732313a207472616e7366657220746f20746865207a65726f2061646460448201527f72657373000000000000000000000000000000000000000000000000000000006064820152608401610739565b611d226000826119c8565b73ffffffffffffffffffffffffffffffffffffffff83166000908152606860205260408120805460019290611d58908490613524565b909155505073ffffffffffffffffffffffffffffffffffffffff82166000908152606860205260408120805460019290611d93908490613484565b909155505060008181526067602052604080822080547fffffffffffffffffffffffff00000000000000000000000000000000000000001673ffffffffffffffffffffffffffffffffffffffff86811691821790925591518493918716917fddf252ad1be2c89b69c2b068fc378daa952ba7f163c4a11628f55a4df523b3ef91a4505050565b60975473ffffffffffffffffffffffffffffffffffffffff1633146111fc5760405162461bcd60e51b815260206004820181905260248201527f4f776e61626c653a2063616c6c6572206973206e6f7420746865206f776e65726044820152606401610739565b6000611ec07f360894a13ba1a3210667c828492db98dca3e2076cc3735a920a3ca505d382bbc5473ffffffffffffffffffffffffffffffffffffffff1690565b9050611ecb84612778565b600083511180611ed85750815b15611ee957611ee78484612852565b505b7f4910fdfa16fed3260ed0e7147f7cc6da11a60208b5b9406d12a635614ffd9143805460ff166120be5780547fffffffffffffffffffffffffffffffffffffffffffffffffffffffffffffff0016600117815560405173ffffffffffffffffffffffffffffffffffffffff83166024820152611fdf908690604401604080517fffffffffffffffffffffffffffffffffffffffffffffffffffffffffffffffe08184030181529190526020810180517bffffffffffffffffffffffffffffffffffffffffffffffffffffffff167f3659cfe600000000000000000000000000000000000000000000000000000000179052612852565b5080547fffffffffffffffffffffffffffffffffffffffffffffffffffffffffffffff001681557f360894a13ba1a3210667c828492db98dca3e2076cc3735a920a3ca505d382bbc5473ffffffffffffffffffffffffffffffffffffffff8381169116146120b55760405162461bcd60e51b815260206004820152602f60248201527f45524331393637557067726164653a207570677261646520627265616b73206660448201527f75727468657220757067726164657300000000000000000000000000000000006064820152608401610739565b6120be85612958565b5050505050565b6097805473ffffffffffffffffffffffffffffffffffffffff8381167fffffffffffffffffffffffff0000000000000000000000000000000000000000831681179093556040519116919082907f8be0079c531659141344cd1fd0a4f28419497f9722a3daafe3b4186f6b6457e090600090a35050565b600054610100900460ff1680612155575060005460ff16155b6121c75760405162461bcd60e51b815260206004820152602e60248201527f496e697469616c697a61626c653a20636f6e747261637420697320616c72656160448201527f647920696e697469616c697a65640000000000000000000000000000000000006064820152608401610739565b600054610100900460ff161580156121e9576000805461ffff19166101011790555b6121f16129a5565b6121f96129a5565b6122038383612a82565b80156108bf57600080547fffffffffffffffffffffffffffffffffffffffffffffffffffffffffffff00ff169055505050565b600054610100900460ff168061224f575060005460ff16155b6122c15760405162461bcd60e51b815260206004820152602e60248201527f496e697469616c697a61626c653a20636f6e747261637420697320616c72656160448201527f647920696e697469616c697a65640000000000000000000000000000000000006064820152608401610739565b600054610100900460ff161580156122e3576000805461ffff19166101011790555b6122eb6129a5565b6122f3612b8a565b80156111fc57600080547fffffffffffffffffffffffffffffffffffffffffffffffffffffffffffff00ff16905550565b600054610100900460ff168061233d575060005460ff16155b6123af5760405162461bcd60e51b815260206004820152602e60248201527f496e697469616c697a61626c653a20636f6e747261637420697320616c72656160448201527f647920696e697469616c697a65640000000000000000000000000000000000006064820152608401610739565b600054610100900460ff161580156123d1576000805461ffff19166101011790555b6123d96129a5565b6122f36129a5565b73ffffffffffffffffffffffffffffffffffffffff82166124445760405162461bcd60e51b815260206004820181905260248201527f4552433732313a206d696e7420746f20746865207a65726f20616464726573736044820152606401610739565b60008181526067602052604090205473ffffffffffffffffffffffffffffffffffffffff16156124b65760405162461bcd60e51b815260206004820152601c60248201527f4552433732313a20746f6b656e20616c7265616479206d696e746564000000006044820152606401610739565b73ffffffffffffffffffffffffffffffffffffffff821660009081526068602052604081208054600192906124ec908490613484565b909155505060008181526067602052604080822080547fffffffffffffffffffffffff00000000000000000000000000000000000000001673ffffffffffffffffffffffffffffffffffffffff861690811790915590518392907fddf252ad1be2c89b69c2b068fc378daa952ba7f163c4a11628f55a4df523b3ef908290a45050565b61257a848484611be6565b61258684848484612c40565b6115f05760405162461bcd60e51b815260206004820152603260248201527f4552433732313a207472616e7366657220746f206e6f6e20455243373231526560448201527f63656976657220696d706c656d656e74657200000000000000000000000000006064820152608401610739565b60608161263857505060408051808201909152600181527f3000000000000000000000000000000000000000000000000000000000000000602082015290565b8160005b8115612662578061264c8161363a565b915061265b9050600a8361349c565b915061263c565b60008167ffffffffffffffff8111156126a4577f4e487b7100000000000000000000000000000000000000000000000000000000600052604160045260246000fd5b6040519080825280601f01601f1916602001820160405280156126ce576020820181803683370190505b5090505b8415611bde576126e3600183613524565b91506126f0600a86613673565b6126fb906030613484565b60f81b818381518110612737577f4e487b7100000000000000000000000000000000000000000000000000000000600052603260045260246000fd5b60200101907effffffffffffffffffffffffffffffffffffffffffffffffffffffffffffff1916908160001a905350612771600a8661349c565b94506126d2565b803b6127ec5760405162461bcd60e51b815260206004820152602d60248201527f455243313936373a206e657720696d706c656d656e746174696f6e206973206e60448201527f6f74206120636f6e7472616374000000000000000000000000000000000000006064820152608401610739565b7f360894a13ba1a3210667c828492db98dca3e2076cc3735a920a3ca505d382bbc80547fffffffffffffffffffffffff00000000000000000000000000000000000000001673ffffffffffffffffffffffffffffffffffffffff92909216919091179055565b6060823b6128c85760405162461bcd60e51b815260206004820152602660248201527f416464726573733a2064656c65676174652063616c6c20746f206e6f6e2d636f60448201527f6e747261637400000000000000000000000000000000000000000000000000006064820152608401610739565b6000808473ffffffffffffffffffffffffffffffffffffffff16846040516128f0919061331d565b600060405180830381855af49150503d806000811461292b576040519150601f19603f3d011682016040523d82523d6000602084013e612930565b606091505b5091509150611a87828260405180606001604052806027815260200161374360279139612e25565b61296181612778565b60405173ffffffffffffffffffffffffffffffffffffffff8216907fbc7cd75a20ee27fd9adebab32041f755214dbc6bffa90cc0225b39da2e5c2d3b90600090a250565b600054610100900460ff16806129be575060005460ff16155b612a305760405162461bcd60e51b815260206004820152602e60248201527f496e697469616c697a61626c653a20636f6e747261637420697320616c72656160448201527f647920696e697469616c697a65640000000000000000000000000000000000006064820152608401610739565b600054610100900460ff161580156122f3576000805461ffff191661010117905580156111fc57600080547fffffffffffffffffffffffffffffffffffffffffffffffffffffffffffff00ff16905550565b600054610100900460ff1680612a9b575060005460ff16155b612b0d5760405162461bcd60e51b815260206004820152602e60248201527f496e697469616c697a61626c653a20636f6e747261637420697320616c72656160448201527f647920696e697469616c697a65640000000000000000000000000000000000006064820152608401610739565b600054610100900460ff16158015612b2f576000805461ffff19166101011790555b8251612b42906065906020860190612e65565b508151612b56906066906020850190612e65565b5080156108bf57600080547fffffffffffffffffffffffffffffffffffffffffffffffffffffffffffff00ff169055505050565b600054610100900460ff1680612ba3575060005460ff16155b612c155760405162461bcd60e51b815260206004820152602e60248201527f496e697469616c697a61626c653a20636f6e747261637420697320616c72656160448201527f647920696e697469616c697a65640000000000000000000000000000000000006064820152608401610739565b600054610100900460ff16158015612c37576000805461ffff19166101011790555b6122f3336120c5565b600073ffffffffffffffffffffffffffffffffffffffff84163b15612e1a576040517f150b7a0200000000000000000000000000000000000000000000000000000000815273ffffffffffffffffffffffffffffffffffffffff85169063150b7a0290612cb790339089908890889060040161340d565b602060405180830381600087803b158015612cd157600080fd5b505af1925050508015612d1f575060408051601f3d9081017fffffffffffffffffffffffffffffffffffffffffffffffffffffffffffffffe0168201909252612d1c91810190613192565b60015b612dcf573d808015612d4d576040519150601f19603f3d011682016040523d82523d6000602084013e612d52565b606091505b508051612dc75760405162461bcd60e51b815260206004820152603260248201527f4552433732313a207472616e7366657220746f206e6f6e20455243373231526560448201527f63656976657220696d706c656d656e74657200000000000000000000000000006064820152608401610739565b805181602001fd5b7fffffffff00000000000000000000000000000000000000000000000000000000167f150b7a0200000000000000000000000000000000000000000000000000000000149050611bde565b506001949350505050565b60608315612e34575081612e5e565b825115612e445782518084602001fd5b8160405162461bcd60e51b81526004016107399190613471565b9392505050565b828054612e71906135c5565b90600052602060002090601f016020900481019282612e935760008555612ed9565b82601f10612eac57805160ff1916838001178555612ed9565b82800160010185558215612ed9579182015b82811115612ed9578251825591602001919060010190612ebe565b50612ee5929150612ee9565b5090565b5b80821115612ee55760008155600101612eea565b600067ffffffffffffffff80841115612f1957612f196136e5565b604051601f85017fffffffffffffffffffffffffffffffffffffffffffffffffffffffffffffffe0908116603f01168101908282118183101715612f5f57612f5f6136e5565b81604052809350858152868686011115612f7857600080fd5b858560208301376000602087830101525050509392505050565b803573ffffffffffffffffffffffffffffffffffffffff81168114612fb657600080fd5b919050565b600082601f830112612fcb578081fd5b612e5e83833560208501612efe565b600060208284031215612feb578081fd5b612e5e82612f92565b60008060408385031215613006578081fd5b61300f83612f92565b915061301d60208401612f92565b90509250929050565b60008060006060848603121561303a578081fd5b61304384612f92565b925061305160208501612f92565b9150604084013590509250925092565b60008060008060808587031215613076578081fd5b61307f85612f92565b935061308d60208601612f92565b925060408501359150606085013567ffffffffffffffff8111156130af578182fd5b6130bb87828801612fbb565b91505092959194509250565b600080604083850312156130d9578182fd5b6130e283612f92565b9150602083013580151581146130f6578182fd5b809150509250929050565b60008060408385031215613113578182fd5b61311c83612f92565b9150602083013567ffffffffffffffff811115613137578182fd5b61314385828601612fbb565b9150509250929050565b6000806040838503121561315f578182fd5b61316883612f92565b946020939093013593505050565b600060208284031215613187578081fd5b8135612e5e81613714565b6000602082840312156131a3578081fd5b8151612e5e81613714565b600080600080606085870312156131c3578384fd5b843567ffffffffffffffff808211156131da578586fd5b818701915087601f8301126131ed578586fd5b8135818111156131fb578687fd5b88602082850101111561320c578687fd5b6020928301999098509187013596604001359550909350505050565b6000806040838503121561323a578182fd5b50508035926020909101359150565b6000806040838503121561325b578182fd5b823567ffffffffffffffff811115613271578283fd5b8301601f81018513613281578283fd5b61329085823560208401612efe565b92505061301d60208401612f92565b6000602082840312156132b0578081fd5b5035919050565b600081518084526132cf81602086016020860161353b565b601f017fffffffffffffffffffffffffffffffffffffffffffffffffffffffffffffffe0169290920160200192915050565b6000815161331381856020860161353b565b9290920192915050565b6000825161332f81846020870161353b565b9190910192915050565b600080845482600182811c91508083168061335557607f831692505b602080841082141561338e577f4e487b710000000000000000000000000000000000000000000000000000000087526022600452602487fd5b8180156133a257600181146133d1576133fd565b7fffffffffffffffffffffffffffffffffffffffffffffffffffffffffffffff008616895284890196506133fd565b60008b815260209020885b868110156133f55781548b8201529085019083016133dc565b505084890196505b505050505050611a878185613301565b600073ffffffffffffffffffffffffffffffffffffffff80871683528086166020840152508360408301526080606083015261344c60808301846132b7565b9695505050505050565b8215158152604060208201526000611bde60408301846132b7565b602081526000612e5e60208301846132b7565b6000821982111561349757613497613687565b500190565b6000826134ab576134ab6136b6565b500490565b6000808312837f8000000000000000000000000000000000000000000000000000000000000000018312811516156134ea576134ea613687565b837f7fffffffffffffffffffffffffffffffffffffffffffffffffffffffffffffff01831381161561351e5761351e613687565b50500390565b60008282101561353657613536613687565b500390565b60005b8381101561355657818101518382015260200161353e565b838111156115f05750506000910152565b60008160010b7fffffffffffffffffffffffffffffffffffffffffffffffffffffffffffff800081141561359d5761359d613687565b7fffffffffffffffffffffffffffffffffffffffffffffffffffffffffffffffff0192915050565b600181811c908216806135d957607f821691505b60208210811415613613577f4e487b7100000000000000000000000000000000000000000000000000000000600052602260045260246000fd5b50919050565b60008160010b617fff81141561363157613631613687565b60010192915050565b60007fffffffffffffffffffffffffffffffffffffffffffffffffffffffffffffffff82141561366c5761366c613687565b5060010190565b600082613682576136826136b6565b500690565b7f4e487b7100000000000000000000000000000000000000000000000000000000600052601160045260246000fd5b7f4e487b7100000000000000000000000000000000000000000000000000000000600052601260045260246000fd5b7f4e487b7100000000000000000000000000000000000000000000000000000000600052604160045260246000fd5b7fffffffff00000000000000000000000000000000000000000000000000000000811681146111fc57600080fdfe416464726573733a206c6f772d6c6576656c2064656c65676174652063616c6c206661696c6564a264697066735822122040a56330d1fc876b3ab2ed90edfa57ff429c0bb2a7a15e295e9afe5d63b7bdcb64736f6c63430008040033",
  "linkReferences": {},
  "deployedLinkReferences": {}
}