{
  "_format": "hh-sol-artifact-1",
  "contractName": "CurseNFT",
  "sourceName": "contracts/CurseNFT.sol",
  "abi": [
    {
      "anonymous": false,
      "inputs": [
        {
          "indexed": false,
          "internalType": "address",
          "name": "previousAdmin",
          "type": "address"
        },
        {
          "indexed": false,
          "internalType": "address",
          "name": "newAdmin",
          "type": "address"
        }
      ],
      "name": "AdminChanged",
      "type": "event"
    },
    {
      "anonymous": false,
      "inputs": [
        {
          "indexed": true,
          "internalType": "address",
          "name": "owner",
          "type": "address"
        },
        {
          "indexed": true,
          "internalType": "address",
          "name": "approved",
          "type": "address"
        },
        {
          "indexed": true,
          "internalType": "uint256",
          "name": "tokenId",
          "type": "uint256"
        }
      ],
      "name": "Approval",
      "type": "event"
    },
    {
      "anonymous": false,
      "inputs": [
        {
          "indexed": true,
          "internalType": "address",
          "name": "owner",
          "type": "address"
        },
        {
          "indexed": true,
          "internalType": "address",
          "name": "operator",
          "type": "address"
        },
        {
          "indexed": false,
          "internalType": "bool",
          "name": "approved",
          "type": "bool"
        }
      ],
      "name": "ApprovalForAll",
      "type": "event"
    },
    {
      "anonymous": false,
      "inputs": [
        {
          "indexed": true,
          "internalType": "address",
          "name": "beacon",
          "type": "address"
        }
      ],
      "name": "BeaconUpgraded",
      "type": "event"
    },
    {
      "anonymous": false,
      "inputs": [
        {
          "indexed": true,
          "internalType": "address",
          "name": "previousOwner",
          "type": "address"
        },
        {
          "indexed": true,
          "internalType": "address",
          "name": "newOwner",
          "type": "address"
        }
      ],
      "name": "OwnershipTransferred",
      "type": "event"
    },
    {
      "anonymous": false,
      "inputs": [
        {
          "indexed": true,
          "internalType": "address",
          "name": "from",
          "type": "address"
        },
        {
          "indexed": true,
          "internalType": "address",
          "name": "to",
          "type": "address"
        },
        {
          "indexed": true,
          "internalType": "uint256",
          "name": "tokenId",
          "type": "uint256"
        }
      ],
      "name": "Transfer",
      "type": "event"
    },
    {
      "anonymous": false,
      "inputs": [
        {
          "indexed": true,
          "internalType": "address",
          "name": "implementation",
          "type": "address"
        }
      ],
      "name": "Upgraded",
      "type": "event"
    },
    {
      "inputs": [
        {
          "internalType": "address",
          "name": "to",
          "type": "address"
        },
        {
          "internalType": "uint256",
          "name": "tokenId",
          "type": "uint256"
        }
      ],
      "name": "approve",
      "outputs": [],
      "stateMutability": "nonpayable",
      "type": "function"
    },
    {
      "inputs": [
        {
          "internalType": "address",
          "name": "owner",
          "type": "address"
        }
      ],
      "name": "balanceOf",
      "outputs": [
        {
          "internalType": "uint256",
          "name": "",
          "type": "uint256"
        }
      ],
      "stateMutability": "view",
      "type": "function"
    },
    {
      "inputs": [
        {
          "internalType": "bytes",
          "name": "checkData",
          "type": "bytes"
        }
      ],
      "name": "checkUpkeep",
      "outputs": [
        {
          "internalType": "bool",
          "name": "upkeepNeeded",
          "type": "bool"
        },
        {
          "internalType": "bytes",
          "name": "performData",
          "type": "bytes"
        }
      ],
      "stateMutability": "view",
      "type": "function"
    },
    {
      "inputs": [
        {
          "internalType": "uint256",
          "name": "tokenId",
          "type": "uint256"
        }
      ],
      "name": "getApproved",
      "outputs": [
        {
          "internalType": "address",
          "name": "",
          "type": "address"
        }
      ],
      "stateMutability": "view",
      "type": "function"
    },
    {
      "inputs": [
        {
          "internalType": "string",
          "name": "baseURI",
          "type": "string"
        },
        {
          "internalType": "address",
          "name": "priceFeedOracle",
          "type": "address"
        }
      ],
      "name": "initialize",
      "outputs": [],
      "stateMutability": "nonpayable",
      "type": "function"
    },
    {
      "inputs": [
        {
          "internalType": "address",
          "name": "owner",
          "type": "address"
        },
        {
          "internalType": "address",
          "name": "operator",
          "type": "address"
        }
      ],
      "name": "isApprovedForAll",
      "outputs": [
        {
          "internalType": "bool",
          "name": "",
          "type": "bool"
        }
      ],
      "stateMutability": "view",
      "type": "function"
    },
    {
      "inputs": [],
      "name": "latestDateChecked",
      "outputs": [
        {
          "internalType": "uint256",
          "name": "",
          "type": "uint256"
        }
      ],
      "stateMutability": "view",
      "type": "function"
    },
    {
      "inputs": [],
      "name": "latestPrice",
      "outputs": [
        {
          "internalType": "int256",
          "name": "",
          "type": "int256"
        }
      ],
      "stateMutability": "view",
      "type": "function"
    },
    {
      "inputs": [],
      "name": "name",
      "outputs": [
        {
          "internalType": "string",
          "name": "",
          "type": "string"
        }
      ],
      "stateMutability": "view",
      "type": "function"
    },
    {
      "inputs": [],
      "name": "owner",
      "outputs": [
        {
          "internalType": "address",
          "name": "",
          "type": "address"
        }
      ],
      "stateMutability": "view",
      "type": "function"
    },
    {
      "inputs": [
        {
          "internalType": "uint256",
          "name": "tokenId",
          "type": "uint256"
        }
      ],
      "name": "ownerOf",
      "outputs": [
        {
          "internalType": "address",
          "name": "",
          "type": "address"
        }
      ],
      "stateMutability": "view",
      "type": "function"
    },
    {
      "inputs": [
        {
          "internalType": "bytes",
          "name": "performData",
          "type": "bytes"
        }
      ],
      "name": "performUpkeep",
      "outputs": [],
      "stateMutability": "nonpayable",
      "type": "function"
    },
    {
      "inputs": [],
      "name": "renounceOwnership",
      "outputs": [],
      "stateMutability": "nonpayable",
      "type": "function"
    },
    {
      "inputs": [
        {
          "internalType": "address",
          "name": "from",
          "type": "address"
        },
        {
          "internalType": "address",
          "name": "to",
          "type": "address"
        },
        {
          "internalType": "uint256",
          "name": "tokenId",
          "type": "uint256"
        }
      ],
      "name": "safeTransferFrom",
      "outputs": [],
      "stateMutability": "nonpayable",
      "type": "function"
    },
    {
      "inputs": [
        {
          "internalType": "address",
          "name": "from",
          "type": "address"
        },
        {
          "internalType": "address",
          "name": "to",
          "type": "address"
        },
        {
          "internalType": "uint256",
          "name": "tokenId",
          "type": "uint256"
        },
        {
          "internalType": "bytes",
          "name": "_data",
          "type": "bytes"
        }
      ],
      "name": "safeTransferFrom",
      "outputs": [],
      "stateMutability": "nonpayable",
      "type": "function"
    },
    {
      "inputs": [
        {
          "internalType": "address",
          "name": "operator",
          "type": "address"
        },
        {
          "internalType": "bool",
          "name": "approved",
          "type": "bool"
        }
      ],
      "name": "setApprovalForAll",
      "outputs": [],
      "stateMutability": "nonpayable",
      "type": "function"
    },
    {
      "inputs": [
        {
          "internalType": "bytes4",
          "name": "interfaceId",
          "type": "bytes4"
        }
      ],
      "name": "supportsInterface",
      "outputs": [
        {
          "internalType": "bool",
          "name": "",
          "type": "bool"
        }
      ],
      "stateMutability": "view",
      "type": "function"
    },
    {
      "inputs": [],
      "name": "symbol",
      "outputs": [
        {
          "internalType": "string",
          "name": "",
          "type": "string"
        }
      ],
      "stateMutability": "view",
      "type": "function"
    },
    {
      "inputs": [
        {
          "internalType": "uint256",
          "name": "tokenId",
          "type": "uint256"
        }
      ],
      "name": "tokenURI",
      "outputs": [
        {
          "internalType": "string",
          "name": "",
          "type": "string"
        }
      ],
      "stateMutability": "view",
      "type": "function"
    },
    {
      "inputs": [
        {
          "internalType": "address",
          "name": "from",
          "type": "address"
        },
        {
          "internalType": "address",
          "name": "to",
          "type": "address"
        },
        {
          "internalType": "uint256",
          "name": "tokenId",
          "type": "uint256"
        }
      ],
      "name": "transferFrom",
      "outputs": [],
      "stateMutability": "nonpayable",
      "type": "function"
    },
    {
      "inputs": [
        {
          "internalType": "address",
          "name": "newOwner",
          "type": "address"
        }
      ],
      "name": "transferOwnership",
      "outputs": [],
      "stateMutability": "nonpayable",
      "type": "function"
    },
    {
      "inputs": [],
      "name": "trend",
      "outputs": [
        {
          "internalType": "int16",
          "name": "",
          "type": "int16"
        }
      ],
      "stateMutability": "view",
      "type": "function"
    },
    {
      "inputs": [
        {
          "internalType": "address",
          "name": "newImplementation",
          "type": "address"
        }
      ],
      "name": "upgradeTo",
      "outputs": [],
      "stateMutability": "nonpayable",
      "type": "function"
    },
    {
      "inputs": [
        {
          "internalType": "address",
          "name": "newImplementation",
          "type": "address"
        },
        {
          "internalType": "bytes",
          "name": "data",
          "type": "bytes"
        }
      ],
      "name": "upgradeToAndCall",
      "outputs": [],
      "stateMutability": "payable",
      "type": "function"
    }
  ],
  "bytecode": "0x608060405234801561001057600080fd5b50612d38806100206000396000f3fe60806040526004361061018b5760003560e01c806370a08231116100d6578063a3e6ba941161007f578063c87b56dd11610059578063c87b56dd1461046d578063e985e9c51461048d578063f2fde38b146104e357600080fd5b8063a3e6ba9414610408578063b85fcc351461041f578063b88d4fde1461044d57600080fd5b80638da5cb5b116100b05780638da5cb5b146103a857806395d89b41146103d3578063a22cb465146103e857600080fd5b806370a0823114610353578063715018a6146103735780637ab4339d1461038857600080fd5b80633659cfe6116101385780634f1ef286116101125780634f1ef286146102f25780636352211e146103055780636e04ff0d1461032557600080fd5b80633659cfe61461029357806342842e0e146102b35780634585e33b146102d357600080fd5b8063095ea7b311610169578063095ea7b31461022c57806323b872dd1461024e5780633325c0251461026e57600080fd5b806301ffc9a71461019057806306fdde03146101c5578063081812fc146101e7575b600080fd5b34801561019c57600080fd5b506101b06101ab3660046128a2565b610503565b60405190151581526020015b60405180910390f35b3480156101d157600080fd5b506101da6105e8565b6040516101bc9190612afd565b3480156101f357600080fd5b5061020761020236600461299d565b61067a565b60405173ffffffffffffffffffffffffffffffffffffffff90911681526020016101bc565b34801561023857600080fd5b5061024c610247366004612879565b61073f565b005b34801561025a57600080fd5b5061024c610269366004612752565b610898565b34801561027a57600080fd5b506102856101305481565b6040519081526020016101bc565b34801561029f57600080fd5b5061024c6102ae366004612706565b61091f565b3480156102bf57600080fd5b5061024c6102ce366004612752565b610946565b3480156102df57600080fd5b5061024c6102ee3660046128da565b5050565b61024c61030036600461282d565b610961565b34801561031157600080fd5b5061020761032036600461299d565b610976565b34801561033157600080fd5b506103456103403660046128da565b610a0e565b6040516101bc929190612ae2565b34801561035f57600080fd5b5061028561036e366004612706565b610a92565b34801561037f57600080fd5b5061024c610b46565b34801561039457600080fd5b5061024c6103a3366004612947565b610bb9565b3480156103b457600080fd5b5060975473ffffffffffffffffffffffffffffffffffffffff16610207565b3480156103df57600080fd5b506101da610d8c565b3480156103f457600080fd5b5061024c6104033660046127f3565b610d9b565b34801561041457600080fd5b5061028561012f5481565b34801561042b57600080fd5b506101315461043a9060010b81565b60405160019190910b81526020016101bc565b34801561045957600080fd5b5061024c61046836600461278d565b610e98565b34801561047957600080fd5b506101da61048836600461299d565b610f26565b34801561049957600080fd5b506101b06104a8366004612720565b73ffffffffffffffffffffffffffffffffffffffff9182166000908152606a6020908152604080832093909416825291909152205460ff1690565b3480156104ef57600080fd5b5061024c6104fe366004612706565b611029565b60007fffffffff0000000000000000000000000000000000000000000000000000000082167f80ac58cd00000000000000000000000000000000000000000000000000000000148061059657507fffffffff0000000000000000000000000000000000000000000000000000000082167f5b5e139f00000000000000000000000000000000000000000000000000000000145b806105e257507f01ffc9a7000000000000000000000000000000000000000000000000000000007fffffffff000000000000000000000000000000000000000000000000000000008316145b92915050565b6060606580546105f790612b7f565b80601f016020809104026020016040519081016040528092919081815260200182805461062390612b7f565b80156106705780601f1061064557610100808354040283529160200191610670565b820191906000526020600020905b81548152906001019060200180831161065357829003601f168201915b5050505050905090565b60008181526067602052604081205473ffffffffffffffffffffffffffffffffffffffff166107165760405162461bcd60e51b815260206004820152602c60248201527f4552433732313a20617070726f76656420717565727920666f72206e6f6e657860448201527f697374656e7420746f6b656e000000000000000000000000000000000000000060648201526084015b60405180910390fd5b5060009081526069602052604090205473ffffffffffffffffffffffffffffffffffffffff1690565b600061074a82610976565b90508073ffffffffffffffffffffffffffffffffffffffff168373ffffffffffffffffffffffffffffffffffffffff1614156107ee5760405162461bcd60e51b815260206004820152602160248201527f4552433732313a20617070726f76616c20746f2063757272656e74206f776e6560448201527f7200000000000000000000000000000000000000000000000000000000000000606482015260840161070d565b3373ffffffffffffffffffffffffffffffffffffffff82161480610817575061081781336104a8565b6108895760405162461bcd60e51b815260206004820152603860248201527f4552433732313a20617070726f76652063616c6c6572206973206e6f74206f7760448201527f6e6572206e6f7220617070726f76656420666f7220616c6c0000000000000000606482015260840161070d565b6108938383611122565b505050565b6108a233826111c2565b6109145760405162461bcd60e51b815260206004820152603160248201527f4552433732313a207472616e736665722063616c6c6572206973206e6f74206f60448201527f776e6572206e6f7220617070726f766564000000000000000000000000000000606482015260840161070d565b610893838383611318565b6109288161154b565b610943816040518060200160405280600081525060006115b2565b50565b61089383838360405180602001604052806000815250610e98565b61096a8261154b565b6102ee828260016115b2565b60008181526067602052604081205473ffffffffffffffffffffffffffffffffffffffff16806105e25760405162461bcd60e51b815260206004820152602960248201527f4552433732313a206f776e657220717565727920666f72206e6f6e657869737460448201527f656e7420746f6b656e0000000000000000000000000000000000000000000000606482015260840161070d565b600060606201518082610a1f6117f7565b9150508163ffffffff1661013054610a379190612b10565b811015610a48576000935083610a4e565b60019350835b5085858080601f0160208091040260200160405190810160405280939291908181526020018383808284376000920191909152509699929850919650505050505050565b600073ffffffffffffffffffffffffffffffffffffffff8216610b1d5760405162461bcd60e51b815260206004820152602a60248201527f4552433732313a2062616c616e636520717565727920666f7220746865207a6560448201527f726f206164647265737300000000000000000000000000000000000000000000606482015260840161070d565b5073ffffffffffffffffffffffffffffffffffffffff1660009081526068602052604090205490565b60975473ffffffffffffffffffffffffffffffffffffffff163314610bad5760405162461bcd60e51b815260206004820181905260248201527f4f776e61626c653a2063616c6c6572206973206e6f7420746865206f776e6572604482015260640161070d565b610bb760006118b5565b565b600054610100900460ff1680610bd2575060005460ff16155b610c445760405162461bcd60e51b815260206004820152602e60248201527f496e697469616c697a61626c653a20636f6e747261637420697320616c72656160448201527f647920696e697469616c697a6564000000000000000000000000000000000000606482015260840161070d565b600054610100900460ff16158015610c8357600080547fffffffffffffffffffffffffffffffffffffffffffffffffffffffffffff0000166101011790555b610cf76040518060400160405280600881526020017f43757273654e46540000000000000000000000000000000000000000000000008152506040518060400160405280600381526020017f4e4654000000000000000000000000000000000000000000000000000000000081525061192c565b610cff611a43565b610d07611b4e565b61012d80547fffffffffffffffffffffffff00000000000000000000000000000000000000001673ffffffffffffffffffffffffffffffffffffffff8416179055600080610d536117f7565b915091505050801561089357600080547fffffffffffffffffffffffffffffffffffffffffffffffffffffffffffff00ff169055505050565b6060606680546105f790612b7f565b73ffffffffffffffffffffffffffffffffffffffff8216331415610e015760405162461bcd60e51b815260206004820152601960248201527f4552433732313a20617070726f766520746f2063616c6c657200000000000000604482015260640161070d565b336000818152606a6020908152604080832073ffffffffffffffffffffffffffffffffffffffff87168085529083529281902080547fffffffffffffffffffffffffffffffffffffffffffffffffffffffffffffff001686151590811790915590519081529192917f17307eab39ab6107e8899845ad3d59bd9653f200f220920489ca2b5937696c31910160405180910390a35050565b610ea233836111c2565b610f145760405162461bcd60e51b815260206004820152603160248201527f4552433732313a207472616e736665722063616c6c6572206973206e6f74206f60448201527f776e6572206e6f7220617070726f766564000000000000000000000000000000606482015260840161070d565b610f2084848484611c28565b50505050565b60008181526067602052604090205460609073ffffffffffffffffffffffffffffffffffffffff16610fc05760405162461bcd60e51b815260206004820152602f60248201527f4552433732314d657461646174613a2055524920717565727920666f72206e6f60448201527f6e6578697374656e7420746f6b656e0000000000000000000000000000000000606482015260840161070d565b6000610fd760408051602081019091526000815290565b90506000815111610ff75760405180602001604052806000815250611022565b8061100184611cb1565b604051602001611012929190612a6a565b6040516020818303038152906040525b9392505050565b60975473ffffffffffffffffffffffffffffffffffffffff1633146110905760405162461bcd60e51b815260206004820181905260248201527f4f776e61626c653a2063616c6c6572206973206e6f7420746865206f776e6572604482015260640161070d565b73ffffffffffffffffffffffffffffffffffffffff81166111195760405162461bcd60e51b815260206004820152602660248201527f4f776e61626c653a206e6577206f776e657220697320746865207a65726f206160448201527f6464726573730000000000000000000000000000000000000000000000000000606482015260840161070d565b610943816118b5565b600081815260696020526040902080547fffffffffffffffffffffffff00000000000000000000000000000000000000001673ffffffffffffffffffffffffffffffffffffffff8416908117909155819061117c82610976565b73ffffffffffffffffffffffffffffffffffffffff167f8c5be1e5ebec7d5bd14f71427d1e84f3dd0314c0f7b2291e5b200ac8c7c3b92560405160405180910390a45050565b60008181526067602052604081205473ffffffffffffffffffffffffffffffffffffffff166112595760405162461bcd60e51b815260206004820152602c60248201527f4552433732313a206f70657261746f7220717565727920666f72206e6f6e657860448201527f697374656e7420746f6b656e0000000000000000000000000000000000000000606482015260840161070d565b600061126483610976565b90508073ffffffffffffffffffffffffffffffffffffffff168473ffffffffffffffffffffffffffffffffffffffff1614806112d357508373ffffffffffffffffffffffffffffffffffffffff166112bb8461067a565b73ffffffffffffffffffffffffffffffffffffffff16145b80611310575073ffffffffffffffffffffffffffffffffffffffff8082166000908152606a602090815260408083209388168352929052205460ff165b949350505050565b8273ffffffffffffffffffffffffffffffffffffffff1661133882610976565b73ffffffffffffffffffffffffffffffffffffffff16146113c15760405162461bcd60e51b815260206004820152602960248201527f4552433732313a207472616e73666572206f6620746f6b656e2074686174206960448201527f73206e6f74206f776e0000000000000000000000000000000000000000000000606482015260840161070d565b73ffffffffffffffffffffffffffffffffffffffff82166114495760405162461bcd60e51b8152602060048201526024808201527f4552433732313a207472616e7366657220746f20746865207a65726f2061646460448201527f7265737300000000000000000000000000000000000000000000000000000000606482015260840161070d565b611454600082611122565b73ffffffffffffffffffffffffffffffffffffffff8316600090815260686020526040812080546001929061148a908490612b3c565b909155505073ffffffffffffffffffffffffffffffffffffffff821660009081526068602052604081208054600192906114c5908490612b10565b909155505060008181526067602052604080822080547fffffffffffffffffffffffff00000000000000000000000000000000000000001673ffffffffffffffffffffffffffffffffffffffff86811691821790925591518493918716917fddf252ad1be2c89b69c2b068fc378daa952ba7f163c4a11628f55a4df523b3ef91a4505050565b60975473ffffffffffffffffffffffffffffffffffffffff1633146109435760405162461bcd60e51b815260206004820181905260248201527f4f776e61626c653a2063616c6c6572206973206e6f7420746865206f776e6572604482015260640161070d565b60006115f27f360894a13ba1a3210667c828492db98dca3e2076cc3735a920a3ca505d382bbc5473ffffffffffffffffffffffffffffffffffffffff1690565b90506115fd84611e31565b60008351118061160a5750815b1561161b576116198484611f0b565b505b7f4910fdfa16fed3260ed0e7147f7cc6da11a60208b5b9406d12a635614ffd9143805460ff166117f05780547fffffffffffffffffffffffffffffffffffffffffffffffffffffffffffffff0016600117815560405173ffffffffffffffffffffffffffffffffffffffff83166024820152611711908690604401604080517fffffffffffffffffffffffffffffffffffffffffffffffffffffffffffffffe08184030181529190526020810180517bffffffffffffffffffffffffffffffffffffffffffffffffffffffff167f3659cfe600000000000000000000000000000000000000000000000000000000179052611f0b565b5080547fffffffffffffffffffffffffffffffffffffffffffffffffffffffffffffff001681557f360894a13ba1a3210667c828492db98dca3e2076cc3735a920a3ca505d382bbc5473ffffffffffffffffffffffffffffffffffffffff8381169116146117e75760405162461bcd60e51b815260206004820152602f60248201527f45524331393637557067726164653a207570677261646520627265616b73206660448201527f7572746865722075706772616465730000000000000000000000000000000000606482015260840161070d565b6117f08561201a565b5050505050565b600080600080600080600061012d60009054906101000a900473ffffffffffffffffffffffffffffffffffffffff1673ffffffffffffffffffffffffffffffffffffffff1663feaf968c6040518163ffffffff1660e01b815260040160a06040518083038186803b15801561186b57600080fd5b505afa15801561187f573d6000803e3d6000fd5b505050506040513d601f19601f820116820180604052508101906118a391906129b5565b50919a91995090975050505050505050565b6097805473ffffffffffffffffffffffffffffffffffffffff8381167fffffffffffffffffffffffff0000000000000000000000000000000000000000831681179093556040519116919082907f8be0079c531659141344cd1fd0a4f28419497f9722a3daafe3b4186f6b6457e090600090a35050565b600054610100900460ff1680611945575060005460ff16155b6119b75760405162461bcd60e51b815260206004820152602e60248201527f496e697469616c697a61626c653a20636f6e747261637420697320616c72656160448201527f647920696e697469616c697a6564000000000000000000000000000000000000606482015260840161070d565b600054610100900460ff161580156119f657600080547fffffffffffffffffffffffffffffffffffffffffffffffffffffffffffff0000166101011790555b6119fe612067565b611a06612067565b611a108383612161565b801561089357600080547fffffffffffffffffffffffffffffffffffffffffffffffffffffffffffff00ff169055505050565b600054610100900460ff1680611a5c575060005460ff16155b611ace5760405162461bcd60e51b815260206004820152602e60248201527f496e697469616c697a61626c653a20636f6e747261637420697320616c72656160448201527f647920696e697469616c697a6564000000000000000000000000000000000000606482015260840161070d565b600054610100900460ff16158015611b0d57600080547fffffffffffffffffffffffffffffffffffffffffffffffffffffffffffff0000166101011790555b611b15612067565b611b1d612286565b801561094357600080547fffffffffffffffffffffffffffffffffffffffffffffffffffffffffffff00ff16905550565b600054610100900460ff1680611b67575060005460ff16155b611bd95760405162461bcd60e51b815260206004820152602e60248201527f496e697469616c697a61626c653a20636f6e747261637420697320616c72656160448201527f647920696e697469616c697a6564000000000000000000000000000000000000606482015260840161070d565b600054610100900460ff16158015611c1857600080547fffffffffffffffffffffffffffffffffffffffffffffffffffffffffffff0000166101011790555b611c20612067565b611b1d612067565b611c33848484611318565b611c3f84848484612359565b610f205760405162461bcd60e51b815260206004820152603260248201527f4552433732313a207472616e7366657220746f206e6f6e20455243373231526560448201527f63656976657220696d706c656d656e7465720000000000000000000000000000606482015260840161070d565b606081611cf157505060408051808201909152600181527f3000000000000000000000000000000000000000000000000000000000000000602082015290565b8160005b8115611d1b5780611d0581612bd3565b9150611d149050600a83612b28565b9150611cf5565b60008167ffffffffffffffff811115611d5d577f4e487b7100000000000000000000000000000000000000000000000000000000600052604160045260246000fd5b6040519080825280601f01601f191660200182016040528015611d87576020820181803683370190505b5090505b841561131057611d9c600183612b3c565b9150611da9600a86612c0c565b611db4906030612b10565b60f81b818381518110611df0577f4e487b7100000000000000000000000000000000000000000000000000000000600052603260045260246000fd5b60200101907effffffffffffffffffffffffffffffffffffffffffffffffffffffffffffff1916908160001a905350611e2a600a86612b28565b9450611d8b565b803b611ea55760405162461bcd60e51b815260206004820152602d60248201527f455243313936373a206e657720696d706c656d656e746174696f6e206973206e60448201527f6f74206120636f6e747261637400000000000000000000000000000000000000606482015260840161070d565b7f360894a13ba1a3210667c828492db98dca3e2076cc3735a920a3ca505d382bbc80547fffffffffffffffffffffffff00000000000000000000000000000000000000001673ffffffffffffffffffffffffffffffffffffffff92909216919091179055565b6060823b611f815760405162461bcd60e51b815260206004820152602660248201527f416464726573733a2064656c65676174652063616c6c20746f206e6f6e2d636f60448201527f6e74726163740000000000000000000000000000000000000000000000000000606482015260840161070d565b6000808473ffffffffffffffffffffffffffffffffffffffff1684604051611fa99190612a4e565b600060405180830381855af49150503d8060008114611fe4576040519150601f19603f3d011682016040523d82523d6000602084013e611fe9565b606091505b50915091506120118282604051806060016040528060278152602001612cdc6027913961253e565b95945050505050565b61202381611e31565b60405173ffffffffffffffffffffffffffffffffffffffff8216907fbc7cd75a20ee27fd9adebab32041f755214dbc6bffa90cc0225b39da2e5c2d3b90600090a250565b600054610100900460ff1680612080575060005460ff16155b6120f25760405162461bcd60e51b815260206004820152602e60248201527f496e697469616c697a61626c653a20636f6e747261637420697320616c72656160448201527f647920696e697469616c697a6564000000000000000000000000000000000000606482015260840161070d565b600054610100900460ff16158015611b1d57600080547fffffffffffffffffffffffffffffffffffffffffffffffffffffffffffff000016610101179055801561094357600080547fffffffffffffffffffffffffffffffffffffffffffffffffffffffffffff00ff16905550565b600054610100900460ff168061217a575060005460ff16155b6121ec5760405162461bcd60e51b815260206004820152602e60248201527f496e697469616c697a61626c653a20636f6e747261637420697320616c72656160448201527f647920696e697469616c697a6564000000000000000000000000000000000000606482015260840161070d565b600054610100900460ff1615801561222b57600080547fffffffffffffffffffffffffffffffffffffffffffffffffffffffffffff0000166101011790555b825161223e906065906020860190612577565b508151612252906066906020850190612577565b50801561089357600080547fffffffffffffffffffffffffffffffffffffffffffffffffffffffffffff00ff169055505050565b600054610100900460ff168061229f575060005460ff16155b6123115760405162461bcd60e51b815260206004820152602e60248201527f496e697469616c697a61626c653a20636f6e747261637420697320616c72656160448201527f647920696e697469616c697a6564000000000000000000000000000000000000606482015260840161070d565b600054610100900460ff1615801561235057600080547fffffffffffffffffffffffffffffffffffffffffffffffffffffffffffff0000166101011790555b611b1d336118b5565b600073ffffffffffffffffffffffffffffffffffffffff84163b15612533576040517f150b7a0200000000000000000000000000000000000000000000000000000000815273ffffffffffffffffffffffffffffffffffffffff85169063150b7a02906123d0903390899088908890600401612a99565b602060405180830381600087803b1580156123ea57600080fd5b505af1925050508015612438575060408051601f3d9081017fffffffffffffffffffffffffffffffffffffffffffffffffffffffffffffffe0168201909252612435918101906128be565b60015b6124e8573d808015612466576040519150601f19603f3d011682016040523d82523d6000602084013e61246b565b606091505b5080516124e05760405162461bcd60e51b815260206004820152603260248201527f4552433732313a207472616e7366657220746f206e6f6e20455243373231526560448201527f63656976657220696d706c656d656e7465720000000000000000000000000000606482015260840161070d565b805181602001fd5b7fffffffff00000000000000000000000000000000000000000000000000000000167f150b7a0200000000000000000000000000000000000000000000000000000000149050611310565b506001949350505050565b6060831561254d575081611022565b82511561255d5782518084602001fd5b8160405162461bcd60e51b815260040161070d9190612afd565b82805461258390612b7f565b90600052602060002090601f0160209004810192826125a557600085556125eb565b82601f106125be57805160ff19168380011785556125eb565b828001600101855582156125eb579182015b828111156125eb5782518255916020019190600101906125d0565b506125f79291506125fb565b5090565b5b808211156125f757600081556001016125fc565b600067ffffffffffffffff8084111561262b5761262b612c7e565b604051601f85017fffffffffffffffffffffffffffffffffffffffffffffffffffffffffffffffe0908116603f0116810190828211818310171561267157612671612c7e565b8160405280935085815286868601111561268a57600080fd5b858560208301376000602087830101525050509392505050565b803573ffffffffffffffffffffffffffffffffffffffff811681146126c857600080fd5b919050565b600082601f8301126126dd578081fd5b61102283833560208501612610565b805169ffffffffffffffffffff811681146126c857600080fd5b600060208284031215612717578081fd5b611022826126a4565b60008060408385031215612732578081fd5b61273b836126a4565b9150612749602084016126a4565b90509250929050565b600080600060608486031215612766578081fd5b61276f846126a4565b925061277d602085016126a4565b9150604084013590509250925092565b600080600080608085870312156127a2578081fd5b6127ab856126a4565b93506127b9602086016126a4565b925060408501359150606085013567ffffffffffffffff8111156127db578182fd5b6127e7878288016126cd565b91505092959194509250565b60008060408385031215612805578182fd5b61280e836126a4565b915060208301358015158114612822578182fd5b809150509250929050565b6000806040838503121561283f578182fd5b612848836126a4565b9150602083013567ffffffffffffffff811115612863578182fd5b61286f858286016126cd565b9150509250929050565b6000806040838503121561288b578182fd5b612894836126a4565b946020939093013593505050565b6000602082840312156128b3578081fd5b813561102281612cad565b6000602082840312156128cf578081fd5b815161102281612cad565b600080602083850312156128ec578182fd5b823567ffffffffffffffff80821115612903578384fd5b818501915085601f830112612916578384fd5b813581811115612924578485fd5b866020828501011115612935578485fd5b60209290920196919550909350505050565b60008060408385031215612959578182fd5b823567ffffffffffffffff81111561296f578283fd5b8301601f8101851361297f578283fd5b61298e85823560208401612610565b925050612749602084016126a4565b6000602082840312156129ae578081fd5b5035919050565b600080600080600060a086880312156129cc578283fd5b6129d5866126ec565b94506020860151935060408601519250606086015191506129f8608087016126ec565b90509295509295909350565b60008151808452612a1c816020860160208601612b53565b601f017fffffffffffffffffffffffffffffffffffffffffffffffffffffffffffffffe0169290920160200192915050565b60008251612a60818460208701612b53565b9190910192915050565b60008351612a7c818460208801612b53565b835190830190612a90818360208801612b53565b01949350505050565b600073ffffffffffffffffffffffffffffffffffffffff808716835280861660208401525083604083015260806060830152612ad86080830184612a04565b9695505050505050565b82151581526040602082015260006113106040830184612a04565b6020815260006110226020830184612a04565b60008219821115612b2357612b23612c20565b500190565b600082612b3757612b37612c4f565b500490565b600082821015612b4e57612b4e612c20565b500390565b60005b83811015612b6e578181015183820152602001612b56565b83811115610f205750506000910152565b600181811c90821680612b9357607f821691505b60208210811415612bcd577f4e487b7100000000000000000000000000000000000000000000000000000000600052602260045260246000fd5b50919050565b60007fffffffffffffffffffffffffffffffffffffffffffffffffffffffffffffffff821415612c0557612c05612c20565b5060010190565b600082612c1b57612c1b612c4f565b500690565b7f4e487b7100000000000000000000000000000000000000000000000000000000600052601160045260246000fd5b7f4e487b7100000000000000000000000000000000000000000000000000000000600052601260045260246000fd5b7f4e487b7100000000000000000000000000000000000000000000000000000000600052604160045260246000fd5b7fffffffff000000000000000000000000000000000000000000000000000000008116811461094357600080fdfe416464726573733a206c6f772d6c6576656c2064656c65676174652063616c6c206661696c6564a26469706673582212208cef0391f7e9583ce04d708b3bddadd5dfd924317b308d5f7837779ab3e43b3b64736f6c63430008040033",
  "linkReferences": {},
  "deployedLinkReferences": {}
}